{
  "contractName": "CrowdfundingCampaignFactory",
  "abi": [
    {
      "constant": true,
      "inputs": [
        {
          "internalType": "uint256",
          "name": "",
          "type": "uint256"
        }
      ],
      "name": "deployedCampaigns",
      "outputs": [
        {
          "internalType": "address",
          "name": "",
          "type": "address"
        }
      ],
      "payable": false,
      "stateMutability": "view",
      "type": "function"
    },
    {
      "constant": false,
      "inputs": [
        {
          "internalType": "string",
          "name": "name",
          "type": "string"
        },
        {
          "internalType": "uint256",
          "name": "minimum",
          "type": "uint256"
        },
        {
          "internalType": "address payable",
          "name": "owner",
          "type": "address"
        }
      ],
      "name": "createCampaign",
      "outputs": [
        {
          "internalType": "address",
          "name": "",
          "type": "address"
        }
      ],
      "payable": false,
      "stateMutability": "nonpayable",
      "type": "function"
    },
    {
      "constant": true,
      "inputs": [],
      "name": "getDeployedCampaigns",
      "outputs": [
        {
          "internalType": "address[]",
          "name": "",
          "type": "address[]"
        }
      ],
      "payable": false,
      "stateMutability": "view",
      "type": "function"
    }
  ],
  "bytecode": "0x608060405234801561001057600080fd5b50611c56806100206000396000f3fe608060405234801561001057600080fd5b50600436106100415760003560e01c80633201696114610046578063339d50a51461016b5780634acb9d4f146101d9575b600080fd5b6101296004803603606081101561005c57600080fd5b810190808035906020019064010000000081111561007957600080fd5b82018360208201111561008b57600080fd5b803590602001918460018302840111640100000000831117156100ad57600080fd5b91908080601f016020809104026020016040519081016040528093929190818152602001838380828437600081840152601f19601f82011690508083019250505050505050919291929080359060200190929190803573ffffffffffffffffffffffffffffffffffffffff169060200190929190505050610238565b604051808273ffffffffffffffffffffffffffffffffffffffff1673ffffffffffffffffffffffffffffffffffffffff16815260200191505060405180910390f35b6101976004803603602081101561018157600080fd5b8101908080359060200190929190505050610383565b604051808273ffffffffffffffffffffffffffffffffffffffff1673ffffffffffffffffffffffffffffffffffffffff16815260200191505060405180910390f35b6101e16103bf565b6040518080602001828103825283818151815260200191508051906020019060200280838360005b83811015610224578082015181840152602081019050610209565b505050509050019250505060405180910390f35b60008084848460405161024a9061044d565b80806020018481526020018373ffffffffffffffffffffffffffffffffffffffff1673ffffffffffffffffffffffffffffffffffffffff168152602001828103825285818151815260200191508051906020019080838360005b838110156102bf5780820151818401526020810190506102a4565b50505050905090810190601f1680156102ec5780820380516001836020036101000a031916815260200191505b50945050505050604051809103906000f08015801561030f573d6000803e3d6000fd5b50905060008190806001815401808255809150509060018203906000526020600020016000909192909190916101000a81548173ffffffffffffffffffffffffffffffffffffffff021916908373ffffffffffffffffffffffffffffffffffffffff16021790555050809150509392505050565b6000818154811061039057fe5b906000526020600020016000915054906101000a900473ffffffffffffffffffffffffffffffffffffffff1681565b6060600080548060200260200160405190810160405280929190818152602001828054801561044357602002820191906000526020600020905b8160009054906101000a900473ffffffffffffffffffffffffffffffffffffffff1673ffffffffffffffffffffffffffffffffffffffff16815260200190600101908083116103f9575b5050505050905090565b6117c78061045b8339019056fe60806040526000600160006101000a81548160ff0219169083151502179055503480156200002c57600080fd5b50604051620017c7380380620017c7833981810160405260608110156200005257600080fd5b81019080805160405193929190846401000000008211156200007357600080fd5b838201915060208201858111156200008a57600080fd5b8251866001820283011164010000000082111715620000a857600080fd5b8083526020830192505050908051906020019080838360005b83811015620000de578082015181840152602081019050620000c1565b50505050905090810190601f1680156200010c5780820380516001836020036101000a031916815260200191505b506040526020018051906020019092919080519060200190929190505050826000908051906020019062000142929190620001b6565b508160038190555080600560006101000a81548173ffffffffffffffffffffffffffffffffffffffff021916908373ffffffffffffffffffffffffffffffffffffffff160217905550600060028190555060018060006101000a81548160ff02191690831515021790555050505062000265565b828054600181600116156101000203166002900490600052602060002090601f016020900481019282601f10620001f957805160ff19168380011785556200022a565b828001600101855582156200022a579182015b82811115620002295782518255916020019190600101906200020c565b5b5090506200023991906200023d565b5090565b6200026291905b808211156200025e57600081600090555060010162000244565b5090565b90565b61155280620002756000396000f3fe6080604052600436106100c25760003560e01c8063438d32b61161007f5780635c43217b116100595780635c43217b146105d55780638f84aa09146106a8578063980e7844146106ff578063d4c3eea014610716576100c2565b8063438d32b61461048c5780634c7b81d31461057f578063583a135d146105aa576100c2565b80630724fda9146100c75780631cee070014610157578063200d2ed21461024557806321eff7fc1461027457806329407f87146102dd5780633487238914610323575b600080fd5b3480156100d357600080fd5b506100dc610741565b6040518080602001828103825283818151815260200191508051906020019080838360005b8381101561011c578082015181840152602081019050610101565b50505050905090810190601f1680156101495780820380516001836020036101000a031916815260200191505b509250505060405180910390f35b34801561016357600080fd5b506101906004803603602081101561017a57600080fd5b81019080803590602001909291905050506107df565b604051808481526020018373ffffffffffffffffffffffffffffffffffffffff1673ffffffffffffffffffffffffffffffffffffffff16815260200180602001828103825283818151815260200191508051906020019080838360005b838110156102085780820151818401526020810190506101ed565b50505050905090810190601f1680156102355780820380516001836020036101000a031916815260200191505b5094505050505060405180910390f35b34801561025157600080fd5b5061025a6108ce565b604051808215151515815260200191505060405180910390f35b34801561028057600080fd5b506102c36004803603602081101561029757600080fd5b81019080803573ffffffffffffffffffffffffffffffffffffffff1690602001909291905050506108e1565b604051808215151515815260200191505060405180910390f35b610309600480360360208110156102f357600080fd5b8101908080359060200190929190505050610937565b604051808215151515815260200191505060405180910390f35b6104066004803603606081101561033957600080fd5b8101908080359060200190929190803573ffffffffffffffffffffffffffffffffffffffff1690602001909291908035906020019064010000000081111561038057600080fd5b82018360208201111561039257600080fd5b803590602001918460018302840111640100000000831117156103b457600080fd5b91908080601f016020809104026020016040519081016040528093929190818152602001838380828437600081840152601f19601f820116905080830192505050505050509192919290505050610bfd565b604051808315151515815260200180602001828103825283818151815260200191508051906020019080838360005b83811015610450578082015181840152602081019050610435565b50505050905090810190601f16801561047d5780820380516001836020036101000a031916815260200191505b50935050505060405180910390f35b610565600480360360408110156104a257600080fd5b81019080803590602001906401000000008111156104bf57600080fd5b8201836020820111156104d157600080fd5b803590602001918460018302840111640100000000831117156104f357600080fd5b91908080601f016020809104026020016040519081016040528093929190818152602001838380828437600081840152601f19601f820116905080830192505050505050509192919290803573ffffffffffffffffffffffffffffffffffffffff169060200190929190505050610e30565b604051808215151515815260200191505060405180910390f35b34801561058b57600080fd5b50610594611085565b6040518082815260200191505060405180910390f35b3480156105b657600080fd5b506105bf611092565b6040518082815260200191505060405180910390f35b61068e600480360360208110156105eb57600080fd5b810190808035906020019064010000000081111561060857600080fd5b82018360208201111561061a57600080fd5b8035906020019184600183028401116401000000008311171561063c57600080fd5b91908080601f016020809104026020016040519081016040528093929190818152602001838380828437600081840152601f19601f820116905080830192505050505050509192919290505050611098565b604051808215151515815260200191505060405180910390f35b3480156106b457600080fd5b506106bd61128f565b604051808273ffffffffffffffffffffffffffffffffffffffff1673ffffffffffffffffffffffffffffffffffffffff16815260200191505060405180910390f35b34801561070b57600080fd5b506107146112b5565b005b34801561072257600080fd5b5061072b6113f3565b6040518082815260200191505060405180910390f35b60008054600181600116156101000203166002900480601f0160208091040260200160405190810160405280929190818152602001828054600181600116156101000203166002900480156107d75780601f106107ac576101008083540402835291602001916107d7565b820191906000526020600020905b8154815290600101906020018083116107ba57829003601f168201915b505050505081565b600481815481106107ec57fe5b90600052602060002090600302016000915090508060000154908060010160009054906101000a900473ffffffffffffffffffffffffffffffffffffffff1690806002018054600181600116156101000203166002900480601f0160208091040260200160405190810160405280929190818152602001828054600181600116156101000203166002900480156108c45780601f10610899576101008083540402835291602001916108c4565b820191906000526020600020905b8154815290600101906020018083116108a757829003601f168201915b5050505050905083565b600160009054906101000a900460ff1681565b6000600660008373ffffffffffffffffffffffffffffffffffffffff1673ffffffffffffffffffffffffffffffffffffffff16815260200190815260200160002060009054906101000a900460ff169050919050565b60006109416113f9565b6004838154811061094e57fe5b9060005260206000209060030201604051806060016040529081600082015481526020016001820160009054906101000a900473ffffffffffffffffffffffffffffffffffffffff1673ffffffffffffffffffffffffffffffffffffffff1673ffffffffffffffffffffffffffffffffffffffff168152602001600282018054600181600116156101000203166002900480601f016020809104026020016040519081016040528092919081815260200182805460018160011615610100020316600290048015610a605780601f10610a3557610100808354040283529160200191610a60565b820191906000526020600020905b815481529060010190602001808311610a4357829003601f168201915b505050505081525050905060048381548110610a7857fe5b90600052602060002090600302016000808201600090556001820160006101000a81549073ffffffffffffffffffffffffffffffffffffffff0219169055600282016000610ac69190611430565b5050600060066000836020015173ffffffffffffffffffffffffffffffffffffffff1673ffffffffffffffffffffffffffffffffffffffff16815260200190815260200160002060006101000a81548160ff0219169083151502179055508060000151600260008282540392505081905550600081602001519050600560009054906101000a900473ffffffffffffffffffffffffffffffffffffffff1673ffffffffffffffffffffffffffffffffffffffff167f4ea40d5e8c76929deef87d860acc5d87d329935ea89d5b6b84f503e934de0b7183600001516040518082815260200191505060405180910390a260008173ffffffffffffffffffffffffffffffffffffffff166108fc84600001519081150290604051600060405180830381858888f193505050509050809350505050919050565b60006060610c096113f9565b60405180606001604052808781526020018673ffffffffffffffffffffffffffffffffffffffff168152602001858152509050600481908060018154018082558091505090600182039060005260206000209060030201600090919290919091506000820151816000015560208201518160010160006101000a81548173ffffffffffffffffffffffffffffffffffffffff021916908373ffffffffffffffffffffffffffffffffffffffff1602179055506040820151816002019080519060200190610cd7929190611478565b505050506001600660008773ffffffffffffffffffffffffffffffffffffffff1673ffffffffffffffffffffffffffffffffffffffff16815260200190815260200160002060006101000a81548160ff021916908315150217905550856002600082825401925050819055508473ffffffffffffffffffffffffffffffffffffffff167f4ea40d5e8c76929deef87d860acc5d87d329935ea89d5b6b84f503e934de0b71876040518082815260200191505060405180910390a260006060600560009054906101000a900473ffffffffffffffffffffffffffffffffffffffff1673ffffffffffffffffffffffffffffffffffffffff168860405180600001905060006040518083038185875af1925050503d8060008114610e15576040519150601f19603f3d011682016040523d82523d6000602084013e610e1a565b606091505b5091509150818194509450505050935093915050565b6000600460405180606001604052803481526020018473ffffffffffffffffffffffffffffffffffffffff16815260200185815250908060018154018082558091505090600182039060005260206000209060030201600090919290919091506000820151816000015560208201518160010160006101000a81548173ffffffffffffffffffffffffffffffffffffffff021916908373ffffffffffffffffffffffffffffffffffffffff1602179055506040820151816002019080519060200190610efd929190611478565b505050506001600660008473ffffffffffffffffffffffffffffffffffffffff1673ffffffffffffffffffffffffffffffffffffffff16815260200190815260200160002060006101000a81548160ff021916908315150217905550346002600082825401925050819055508173ffffffffffffffffffffffffffffffffffffffff167f4ea40d5e8c76929deef87d860acc5d87d329935ea89d5b6b84f503e934de0b71346040518082815260200191505060405180910390a2600560009054906101000a900473ffffffffffffffffffffffffffffffffffffffff1673ffffffffffffffffffffffffffffffffffffffff166108fc349081150290604051600060405180830381858888f1935050505015801561101f573d6000803e3d6000fd5b506000600560009054906101000a900473ffffffffffffffffffffffffffffffffffffffff1673ffffffffffffffffffffffffffffffffffffffff166108fc349081150290604051600060405180830381858888f1935050505090508091505092915050565b6000600480549050905090565b60035481565b60006110a26113f9565b60405180606001604052803481526020013373ffffffffffffffffffffffffffffffffffffffff168152602001848152509050600481908060018154018082558091505090600182039060005260206000209060030201600090919290919091506000820151816000015560208201518160010160006101000a81548173ffffffffffffffffffffffffffffffffffffffff021916908373ffffffffffffffffffffffffffffffffffffffff1602179055506040820151816002019080519060200190611170929190611478565b505050506001600660003373ffffffffffffffffffffffffffffffffffffffff1673ffffffffffffffffffffffffffffffffffffffff16815260200190815260200160002060006101000a81548160ff021916908315150217905550346002600082825401925050819055503373ffffffffffffffffffffffffffffffffffffffff167f4ea40d5e8c76929deef87d860acc5d87d329935ea89d5b6b84f503e934de0b71346040518082815260200191505060405180910390a26000600560009054906101000a900473ffffffffffffffffffffffffffffffffffffffff1673ffffffffffffffffffffffffffffffffffffffff166108fc349081150290604051600060405180830381858888f1935050505090508092505050919050565b600560009054906101000a900473ffffffffffffffffffffffffffffffffffffffff1681565b6000600160006101000a81548160ff02191690831515021790555060008090505b6004805490508110156113f0576000600482815481106112f257fe5b90600052602060002090600302019050600560009054906101000a900473ffffffffffffffffffffffffffffffffffffffff1673ffffffffffffffffffffffffffffffffffffffff167f10220cd501b1dca57ca22a9f44f48f95fec36d5038dfebe35f21932a22c58efa82600001546040518082815260200191505060405180910390a260008160010160009054906101000a900473ffffffffffffffffffffffffffffffffffffffff1673ffffffffffffffffffffffffffffffffffffffff166108fc83600001549081150290604051600060405180830381858888f193505050509050806113e157600080fd5b505080806001019150506112d6565b50565b60025481565b604051806060016040528060008152602001600073ffffffffffffffffffffffffffffffffffffffff168152602001606081525090565b50805460018160011615610100020316600290046000825580601f106114565750611475565b601f01602090049060005260206000209081019061147491906114f8565b5b50565b828054600181600116156101000203166002900490600052602060002090601f016020900481019282601f106114b957805160ff19168380011785556114e7565b828001600101855582156114e7579182015b828111156114e65782518255916020019190600101906114cb565b5b5090506114f491906114f8565b5090565b61151a91905b808211156115165760008160009055506001016114fe565b5090565b9056fea265627a7a72315820d93ea7bbe81f332059ca0bf0d8ffdb84652e150454fae3c46bf82757db620ada64736f6c63430005100032a265627a7a723158201f1d71124239f1e0c593ea03f3bd7118b4e26ee930a0ea7c73e1ac79bc4c263b64736f6c63430005100032",
  "source": "pragma solidity >=0.4.21 <0.8.0;\n\nimport \"./CrowdfundingCampaign.sol\";\n\ncontract CrowdfundingCampaignFactory {\n\n    address[] public deployedCampaigns;\n\n    function createCampaign(string memory name, uint minimum, address payable owner) public returns (address) {\n        address newCampaign = address(new CrowdfundingCampaign(name, minimum, owner));\n        deployedCampaigns.push(newCampaign);\n\n        return newCampaign;\n    }\n\n    function getDeployedCampaigns() public view returns (address[] memory) {\n        return deployedCampaigns;\n    }\n}",
  "sourcePath": "/home/tomas/FEI/DP-I/DP-I-project/contracts/CrowdfundingCampaignFactory.sol",
  "compiler": {
    "name": "solc",
    "version": "0.5.16+commit.9c3226ce.Emscripten.clang"
  },
  "schemaVersion": "3.4.4",
  "updatedAt": "2022-01-23T16:32:36.813Z",
  "networkType": "ethereum",
  "devdoc": {
    "methods": {}
  },
  "userdoc": {
    "methods": {}
  }
}