{
  "contractName": "CrowdfundingCampaign",
  "abi": [
    {
      "inputs": [
        {
          "internalType": "string",
          "name": "name",
          "type": "string"
        },
        {
          "internalType": "uint256",
          "name": "goal",
          "type": "uint256"
        },
        {
          "internalType": "address payable",
          "name": "creator",
          "type": "address"
        }
      ],
      "payable": false,
      "stateMutability": "nonpayable",
      "type": "constructor"
    },
    {
      "anonymous": false,
      "inputs": [
        {
          "indexed": false,
          "internalType": "address",
          "name": "add",
          "type": "address"
        }
      ],
      "name": "logAddress",
      "type": "event"
    },
    {
      "anonymous": false,
      "inputs": [
        {
          "indexed": false,
          "internalType": "uint256",
          "name": "balance",
          "type": "uint256"
        }
      ],
      "name": "logContractBalance",
      "type": "event"
    },
    {
      "anonymous": false,
      "inputs": [
        {
          "indexed": true,
          "internalType": "address",
          "name": "_from",
          "type": "address"
        },
        {
          "indexed": true,
          "internalType": "address",
          "name": "_to",
          "type": "address"
        },
        {
          "indexed": false,
          "internalType": "uint256",
          "name": "_value",
          "type": "uint256"
        }
      ],
      "name": "logContributeMoney",
      "type": "event"
    },
    {
      "anonymous": false,
      "inputs": [
        {
          "indexed": true,
          "internalType": "address",
          "name": "_from",
          "type": "address"
        },
        {
          "indexed": true,
          "internalType": "address",
          "name": "_to",
          "type": "address"
        },
        {
          "indexed": false,
          "internalType": "uint256",
          "name": "_value",
          "type": "uint256"
        }
      ],
      "name": "logReturnContribution",
      "type": "event"
    },
    {
      "anonymous": false,
      "inputs": [
        {
          "indexed": false,
          "internalType": "bool",
          "name": "success",
          "type": "bool"
        },
        {
          "indexed": false,
          "internalType": "address payable",
          "name": "_to",
          "type": "address"
        }
      ],
      "name": "logWithdrawalTransferSuccess",
      "type": "event"
    },
    {
      "payable": true,
      "stateMutability": "payable",
      "type": "fallback"
    },
    {
      "constant": true,
      "inputs": [
        {
          "internalType": "address",
          "name": "",
          "type": "address"
        }
      ],
      "name": "balances",
      "outputs": [
        {
          "internalType": "uint256",
          "name": "",
          "type": "uint256"
        }
      ],
      "payable": false,
      "stateMutability": "view",
      "type": "function"
    },
    {
      "constant": true,
      "inputs": [],
      "name": "campaignName",
      "outputs": [
        {
          "internalType": "string",
          "name": "",
          "type": "string"
        }
      ],
      "payable": false,
      "stateMutability": "view",
      "type": "function"
    },
    {
      "constant": true,
      "inputs": [],
      "name": "campaignStatus",
      "outputs": [
        {
          "internalType": "bool",
          "name": "",
          "type": "bool"
        }
      ],
      "payable": false,
      "stateMutability": "view",
      "type": "function"
    },
    {
      "constant": true,
      "inputs": [
        {
          "internalType": "uint256",
          "name": "",
          "type": "uint256"
        }
      ],
      "name": "contributions",
      "outputs": [
        {
          "internalType": "uint256",
          "name": "value",
          "type": "uint256"
        },
        {
          "internalType": "address payable",
          "name": "contributor",
          "type": "address"
        },
        {
          "internalType": "string",
          "name": "description",
          "type": "string"
        }
      ],
      "payable": false,
      "stateMutability": "view",
      "type": "function"
    },
    {
      "constant": true,
      "inputs": [
        {
          "internalType": "address",
          "name": "",
          "type": "address"
        },
        {
          "internalType": "uint256",
          "name": "",
          "type": "uint256"
        }
      ],
      "name": "contributions2",
      "outputs": [
        {
          "internalType": "uint256",
          "name": "value",
          "type": "uint256"
        },
        {
          "internalType": "string",
          "name": "description",
          "type": "string"
        }
      ],
      "payable": false,
      "stateMutability": "view",
      "type": "function"
    },
    {
      "constant": true,
      "inputs": [],
      "name": "goalValue",
      "outputs": [
        {
          "internalType": "uint256",
          "name": "",
          "type": "uint256"
        }
      ],
      "payable": false,
      "stateMutability": "view",
      "type": "function"
    },
    {
      "constant": true,
      "inputs": [],
      "name": "ownerAddress",
      "outputs": [
        {
          "internalType": "address payable",
          "name": "",
          "type": "address"
        }
      ],
      "payable": false,
      "stateMutability": "view",
      "type": "function"
    },
    {
      "constant": true,
      "inputs": [],
      "name": "totalValue",
      "outputs": [
        {
          "internalType": "uint256",
          "name": "",
          "type": "uint256"
        }
      ],
      "payable": false,
      "stateMutability": "view",
      "type": "function"
    },
    {
      "constant": false,
      "inputs": [
        {
          "internalType": "string",
          "name": "description",
          "type": "string"
        }
      ],
      "name": "contribute",
      "outputs": [
        {
          "internalType": "bool",
          "name": "",
          "type": "bool"
        }
      ],
      "payable": true,
      "stateMutability": "payable",
      "type": "function"
    },
    {
      "constant": false,
      "inputs": [
        {
          "internalType": "string",
          "name": "description",
          "type": "string"
        }
      ],
      "name": "contributeCampaign",
      "outputs": [
        {
          "internalType": "bool",
          "name": "",
          "type": "bool"
        }
      ],
      "payable": true,
      "stateMutability": "payable",
      "type": "function"
    },
    {
      "constant": false,
      "inputs": [
        {
          "internalType": "uint256",
          "name": "index",
          "type": "uint256"
        }
      ],
      "name": "withdrawContribution",
      "outputs": [
        {
          "internalType": "bool",
          "name": "",
          "type": "bool"
        }
      ],
      "payable": true,
      "stateMutability": "payable",
      "type": "function"
    },
    {
      "constant": false,
      "inputs": [
        {
          "internalType": "uint256",
          "name": "index",
          "type": "uint256"
        }
      ],
      "name": "withdrawContribution2",
      "outputs": [
        {
          "internalType": "bool",
          "name": "",
          "type": "bool"
        }
      ],
      "payable": true,
      "stateMutability": "payable",
      "type": "function"
    },
    {
      "constant": false,
      "inputs": [],
      "name": "cancelCampaign",
      "outputs": [],
      "payable": true,
      "stateMutability": "payable",
      "type": "function"
    },
    {
      "constant": false,
      "inputs": [],
      "name": "finishCampaign",
      "outputs": [
        {
          "internalType": "bool",
          "name": "",
          "type": "bool"
        }
      ],
      "payable": false,
      "stateMutability": "nonpayable",
      "type": "function"
    },
    {
      "constant": true,
      "inputs": [],
      "name": "getNumberOfContributions",
      "outputs": [
        {
          "internalType": "uint256",
          "name": "",
          "type": "uint256"
        }
      ],
      "payable": false,
      "stateMutability": "view",
      "type": "function"
    },
    {
      "constant": false,
      "inputs": [],
      "name": "activateCampaign",
      "outputs": [],
      "payable": false,
      "stateMutability": "nonpayable",
      "type": "function"
    }
  ],
  "bytecode": "0x60806040526000600160006101000a81548160ff0219169083151502179055503480156200002c57600080fd5b5060405162001ae638038062001ae6833981810160405260608110156200005257600080fd5b81019080805160405193929190846401000000008211156200007357600080fd5b838201915060208201858111156200008a57600080fd5b8251866001820283011164010000000082111715620000a857600080fd5b8083526020830192505050908051906020019080838360005b83811015620000de578082015181840152602081019050620000c1565b50505050905090810190601f1680156200010c5780820380516001836020036101000a031916815260200191505b506040526020018051906020019092919080519060200190929190505050826000908051906020019062000142929190620001b6565b508160038190555080600660006101000a81548173ffffffffffffffffffffffffffffffffffffffff021916908373ffffffffffffffffffffffffffffffffffffffff160217905550600060028190555060018060006101000a81548160ff02191690831515021790555050505062000265565b828054600181600116156101000203166002900490600052602060002090601f016020900481019282601f10620001f957805160ff19168380011785556200022a565b828001600101855582156200022a579182015b82811115620002295782518255916020019190600101906200020c565b5b5090506200023991906200023d565b5090565b6200026291905b808211156200025e57600081600090555060010162000244565b5090565b90565b61187180620002756000396000f3fe6080604052600436106100f35760003560e01c806388e3bbda1161008a578063d25090ff11610059578063d25090ff1461069e578063d4c3eea0146106e4578063ea12e9b61461070f578063f3a4721a14610726576100f3565b806388e3bbda146105335780638f84aa0914610562578063980e7844146105b9578063cb65fdf4146105c3576100f3565b8063583a135d116100c6578063583a135d1461031c5780635c43217b14610347578063656442b91461041a5780638237fc5114610460576100f3565b80630724fda91461010e5780631cee07001461019e57806327e235e31461028c5780634c7b81d3146102f1575b61010b60405180602001604052806000815250610755565b50005b34801561011a57600080fd5b506101236109d1565b6040518080602001828103825283818151815260200191508051906020019080838360005b83811015610163578082015181840152602081019050610148565b50505050905090810190601f1680156101905780820380516001836020036101000a031916815260200191505b509250505060405180910390f35b3480156101aa57600080fd5b506101d7600480360360208110156101c157600080fd5b8101908080359060200190929190505050610a6f565b604051808481526020018373ffffffffffffffffffffffffffffffffffffffff1673ffffffffffffffffffffffffffffffffffffffff16815260200180602001828103825283818151815260200191508051906020019080838360005b8381101561024f578082015181840152602081019050610234565b50505050905090810190601f16801561027c5780820380516001836020036101000a031916815260200191505b5094505050505060405180910390f35b34801561029857600080fd5b506102db600480360360208110156102af57600080fd5b81019080803573ffffffffffffffffffffffffffffffffffffffff169060200190929190505050610b5e565b6040518082815260200191505060405180910390f35b3480156102fd57600080fd5b50610306610b76565b6040518082815260200191505060405180910390f35b34801561032857600080fd5b50610331610b83565b6040518082815260200191505060405180910390f35b6104006004803603602081101561035d57600080fd5b810190808035906020019064010000000081111561037a57600080fd5b82018360208201111561038c57600080fd5b803590602001918460018302840111640100000000831117156103ae57600080fd5b91908080601f016020809104026020016040519081016040528093929190818152602001838380828437600081840152601f19601f820116905080830192505050505050509192919290505050610b89565b604051808215151515815260200191505060405180910390f35b6104466004803603602081101561043057600080fd5b8101908080359060200190929190505050610d68565b604051808215151515815260200191505060405180910390f35b6105196004803603602081101561047657600080fd5b810190808035906020019064010000000081111561049357600080fd5b8201836020820111156104a557600080fd5b803590602001918460018302840111640100000000831117156104c757600080fd5b91908080601f016020809104026020016040519081016040528093929190818152602001838380828437600081840152601f19601f820116905080830192505050505050509192919290505050610755565b604051808215151515815260200191505060405180910390f35b34801561053f57600080fd5b5061054861101a565b604051808215151515815260200191505060405180910390f35b34801561056e57600080fd5b5061057761118c565b604051808273ffffffffffffffffffffffffffffffffffffffff1673ffffffffffffffffffffffffffffffffffffffff16815260200191505060405180910390f35b6105c16111b2565b005b3480156105cf57600080fd5b5061061c600480360360408110156105e657600080fd5b81019080803573ffffffffffffffffffffffffffffffffffffffff16906020019092919080359060200190929190505050611309565b6040518083815260200180602001828103825283818151815260200191508051906020019080838360005b83811015610662578082015181840152602081019050610647565b50505050905090810190601f16801561068f5780820380516001836020036101000a031916815260200191505b50935050505060405180910390f35b6106ca600480360360208110156106b457600080fd5b81019080803590602001909291905050506113df565b604051808215151515815260200191505060405180910390f35b3480156106f057600080fd5b506106f96116b4565b6040518082815260200191505060405180910390f35b34801561071b57600080fd5b506107246116ba565b005b34801561073257600080fd5b5061073b6116eb565b604051808215151515815260200191505060405180910390f35b6000600160009054906101000a900460ff16156109c7576107746116fe565b60405180606001604052803481526020013373ffffffffffffffffffffffffffffffffffffffff1681526020018481525090506107af611735565b6040518060400160405280348152602001858152509050600560003373ffffffffffffffffffffffffffffffffffffffff1673ffffffffffffffffffffffffffffffffffffffff168152602001908152602001600020819080600181540180825580915050906001820390600052602060002090600202016000909192909190915060008201518160000155602082015181600101908051906020019061085792919061174f565b5050505034600760003373ffffffffffffffffffffffffffffffffffffffff1673ffffffffffffffffffffffffffffffffffffffff16815260200190815260200160002060008282540192505081905550600482908060018154018082558091505090600182039060005260206000209060030201600090919290919091506000820151816000015560208201518160010160006101000a81548173ffffffffffffffffffffffffffffffffffffffff021916908373ffffffffffffffffffffffffffffffffffffffff160217905550604082015181600201908051906020019061094392919061174f565b50505050346002600082825401925050819055503073ffffffffffffffffffffffffffffffffffffffff163373ffffffffffffffffffffffffffffffffffffffff167fdcfd6735be7030902acaa6f041bf0e0137b04aedb3a8f5313c5985dce26fe7fa346040518082815260200191505060405180910390a36001925050506109cc565b600090505b919050565b60008054600181600116156101000203166002900480601f016020809104026020016040519081016040528092919081815260200182805460018160011615610100020316600290048015610a675780601f10610a3c57610100808354040283529160200191610a67565b820191906000526020600020905b815481529060010190602001808311610a4a57829003601f168201915b505050505081565b60048181548110610a7c57fe5b90600052602060002090600302016000915090508060000154908060010160009054906101000a900473ffffffffffffffffffffffffffffffffffffffff1690806002018054600181600116156101000203166002900480601f016020809104026020016040519081016040528092919081815260200182805460018160011615610100020316600290048015610b545780601f10610b2957610100808354040283529160200191610b54565b820191906000526020600020905b815481529060010190602001808311610b3757829003601f168201915b5050505050905083565b60076020528060005260406000206000915090505481565b6000600480549050905090565b60035481565b6000610b936116fe565b60405180606001604052803481526020013373ffffffffffffffffffffffffffffffffffffffff168152602001848152509050600660009054906101000a900473ffffffffffffffffffffffffffffffffffffffff1673ffffffffffffffffffffffffffffffffffffffff163373ffffffffffffffffffffffffffffffffffffffff167fdcfd6735be7030902acaa6f041bf0e0137b04aedb3a8f5313c5985dce26fe7fa346040518082815260200191505060405180910390a36000600660009054906101000a900473ffffffffffffffffffffffffffffffffffffffff1673ffffffffffffffffffffffffffffffffffffffff166108fc349081150290604051600060405180830381858888f1935050505090508015610d5e57600482908060018154018082558091505090600182039060005260206000209060030201600090919290919091506000820151816000015560208201518160010160006101000a81548173ffffffffffffffffffffffffffffffffffffffff021916908373ffffffffffffffffffffffffffffffffffffffff1602179055506040820151816002019080519060200190610d4992919061174f565b50505050346002600082825401925050819055505b8092505050919050565b6000610d72611735565b600560003373ffffffffffffffffffffffffffffffffffffffff1673ffffffffffffffffffffffffffffffffffffffff1681526020019081526020016000208381548110610dbc57fe5b906000526020600020906002020160405180604001604052908160008201548152602001600182018054600181600116156101000203166002900480601f016020809104026020016040519081016040528092919081815260200182805460018160011615610100020316600290048015610e785780601f10610e4d57610100808354040283529160200191610e78565b820191906000526020600020905b815481529060010190602001808311610e5b57829003601f168201915b505050505081525050905060003373ffffffffffffffffffffffffffffffffffffffff166108fc83600001519081150290604051600060405180830381858888f1935050505090507f54e33288800614b818e34d475e01cc8fbc4bb0312a0eda7c6a50da129a12f558813360405180831515151581526020018273ffffffffffffffffffffffffffffffffffffffff1673ffffffffffffffffffffffffffffffffffffffff1681526020019250505060405180910390a18015611010573373ffffffffffffffffffffffffffffffffffffffff163073ffffffffffffffffffffffffffffffffffffffff167f13c5f279f95e211e35647815ce24db5bffac028d5b9800eb778daa6b7f561ed784600001516040518082815260200191505060405180910390a360048481548110610fab57fe5b90600052602060002090600302016000808201600090556001820160006101000a81549073ffffffffffffffffffffffffffffffffffffffff0219169055600282016000610ff991906117cf565b505081600001516002600082825403925050819055505b8092505050919050565b6000804790507fd4a125efef1c3fca9f2d63ea257a143623b80df1843e34bf3bb8c3021739faf8816040518082815260200191505060405180910390a1600160009054906101000a900460ff16801561107557506003544710155b156111835760003373ffffffffffffffffffffffffffffffffffffffff166108fc6002549081150290604051600060405180830381858888f1935050505090508015611181576000600160006101000a81548160ff0219169083151502179055503373ffffffffffffffffffffffffffffffffffffffff163073ffffffffffffffffffffffffffffffffffffffff167fdcfd6735be7030902acaa6f041bf0e0137b04aedb3a8f5313c5985dce26fe7fa6002546040518082815260200191505060405180910390a34791507fd4a125efef1c3fca9f2d63ea257a143623b80df1843e34bf3bb8c3021739faf8826040518082815260200191505060405180910390a18092505050611189565b505b60009150505b90565b600660009054906101000a900473ffffffffffffffffffffffffffffffffffffffff1681565b6000600160006101000a81548160ff02191690831515021790555060008090505b600480549050811015611306576000600482815481106111ef57fe5b906000526020600020906003020190508060010160009054906101000a900473ffffffffffffffffffffffffffffffffffffffff1673ffffffffffffffffffffffffffffffffffffffff163073ffffffffffffffffffffffffffffffffffffffff167f13c5f279f95e211e35647815ce24db5bffac028d5b9800eb778daa6b7f561ed783600001546040518082815260200191505060405180910390a360008160010160009054906101000a900473ffffffffffffffffffffffffffffffffffffffff1673ffffffffffffffffffffffffffffffffffffffff166108fc83600001549081150290604051600060405180830381858888f193505050509050806112f757600080fd5b505080806001019150506111d3565b50565b6005602052816000526040600020818154811061132257fe5b906000526020600020906002020160009150915050806000015490806001018054600181600116156101000203166002900480601f0160208091040260200160405190810160405280929190818152602001828054600181600116156101000203166002900480156113d55780601f106113aa576101008083540402835291602001916113d5565b820191906000526020600020905b8154815290600101906020018083116113b857829003601f168201915b5050505050905082565b60006113e96116fe565b600483815481106113f657fe5b9060005260206000209060030201604051806060016040529081600082015481526020016001820160009054906101000a900473ffffffffffffffffffffffffffffffffffffffff1673ffffffffffffffffffffffffffffffffffffffff1673ffffffffffffffffffffffffffffffffffffffff168152602001600282018054600181600116156101000203166002900480601f0160208091040260200160405190810160405280929190818152602001828054600181600116156101000203166002900480156115085780601f106114dd57610100808354040283529160200191611508565b820191906000526020600020905b8154815290600101906020018083116114eb57829003601f168201915b505050505081525050905060008160200151905060008173ffffffffffffffffffffffffffffffffffffffff166108fc84600001519081150290604051600060405180830381858888f1935050505090507f54e33288800614b818e34d475e01cc8fbc4bb0312a0eda7c6a50da129a12f558818360405180831515151581526020018273ffffffffffffffffffffffffffffffffffffffff1673ffffffffffffffffffffffffffffffffffffffff1681526020019250505060405180910390a180156116a9578173ffffffffffffffffffffffffffffffffffffffff163073ffffffffffffffffffffffffffffffffffffffff167f13c5f279f95e211e35647815ce24db5bffac028d5b9800eb778daa6b7f561ed785600001516040518082815260200191505060405180910390a36004858154811061164457fe5b90600052602060002090600302016000808201600090556001820160006101000a81549073ffffffffffffffffffffffffffffffffffffffff021916905560028201600061169291906117cf565b505082600001516002600082825403925050819055505b809350505050919050565b60025481565b600160009054906101000a900460ff166116e95760018060006101000a81548160ff0219169083151502179055505b565b600160009054906101000a900460ff1681565b604051806060016040528060008152602001600073ffffffffffffffffffffffffffffffffffffffff168152602001606081525090565b604051806040016040528060008152602001606081525090565b828054600181600116156101000203166002900490600052602060002090601f016020900481019282601f1061179057805160ff19168380011785556117be565b828001600101855582156117be579182015b828111156117bd5782518255916020019190600101906117a2565b5b5090506117cb9190611817565b5090565b50805460018160011615610100020316600290046000825580601f106117f55750611814565b601f0160209004906000526020600020908101906118139190611817565b5b50565b61183991905b8082111561183557600081600090555060010161181d565b5090565b9056fea265627a7a7231582040958848d9ec8bc50cf030cbd98fb96078dc276b01d12351e7df34d563188c8964736f6c63430005100032",
  "source": "pragma solidity >=0.4.21 <0.8.0;\n\ncontract CrowdfundingCampaign {\n\n    string public campaignName;\n\n    struct Contribution {\n        uint value;\n        address payable contributor;\n        string description;\n    }\n\n    struct Contribution2 {\n        uint value;\n        string description;\n    }\n\n    bool public campaignStatus = false;\n    uint public totalValue;\n    uint public goalValue;\n    Contribution [] public contributions;\n    mapping (address => Contribution2[]) public contributions2;\n    address payable public ownerAddress;\n    mapping (address => uint256) public balances;\n\n    constructor(string memory name, uint goal, address payable creator) public {\n        campaignName = name ;\n        goalValue = goal;\n        ownerAddress = creator;\n        totalValue = 0;\n        campaignStatus = true;\n    }\n\n    function () external payable {\n        contributeCampaign(\"\");\n    }\n\n    event logContributeMoney(address indexed _from,  address indexed _to, uint _value);\n    event logReturnContribution(address indexed _from, address indexed _to, uint _value);\n    event logWithdrawalTransferSuccess(bool success, address payable _to);\n    event logContractBalance(uint balance);\n    event logAddress(address add);\n\n    function contribute(string memory description) public payable returns(bool) {\n        Contribution memory newContribution = Contribution({\n            description: description,\n            value: msg.value,\n            contributor: msg.sender\n        });\n        emit logContributeMoney(msg.sender, ownerAddress, msg.value);\n        bool success = ownerAddress.send(msg.value);\n        if (success) {\n            contributions.push(newContribution);\n            totalValue += msg.value;\n        }\n        return success;\n    }\n\n    function contributeCampaign(string memory description) public payable returns(bool) {\n        if (campaignStatus) {\n            Contribution memory newContribution = Contribution({\n            description: description,\n            value: msg.value,\n            contributor: msg.sender\n            });\n\n            Contribution2 memory newContribution2 = Contribution2({\n            description: description,\n            value: msg.value\n            });\n            // address payable campaignPayableAddress = address(uint160(address(this)));\n            // bool success = campaignPayableAddress.send(msg.value);\n\n            contributions2[msg.sender].push(newContribution2);\n            balances[msg.sender] += msg.value;\n            contributions.push(newContribution);\n\n            totalValue += msg.value;\n            emit logContributeMoney(msg.sender, address(this), msg.value);\n            return true;\n        } else {\n            return false;\n        }\n    }\n\n    function withdrawContribution(uint index) public payable returns(bool) {\n        Contribution memory contribution = contributions[index];\n\n        address payable contributorAddress = contribution.contributor;\n\n        bool success = contributorAddress.send(contribution.value);\n        emit logWithdrawalTransferSuccess(success, contributorAddress);\n        if (success) {\n            emit logReturnContribution(address(this), contributorAddress, contribution.value);\n\n            delete contributions[index];\n            totalValue -= contribution.value;\n        }\n        return success;\n    }\n\n    function withdrawContribution2(uint index) public payable returns(bool) {\n        Contribution2 memory contribution = contributions2[msg.sender][index];\n\n        bool success = msg.sender.send(contribution.value);\n        emit logWithdrawalTransferSuccess(success, msg.sender);\n        if (success) {\n            emit logReturnContribution(address(this), msg.sender, contribution.value);\n\n            delete contributions[index];\n            totalValue -= contribution.value;\n        }\n        return success;\n    }\n\n    function cancelCampaign() public payable {\n        campaignStatus = false;\n        for (uint i = 0; i < contributions.length; i++) {\n            Contribution storage contribution = contributions[i];\n            emit logReturnContribution(address(this), contribution.contributor, contribution.value);\n            bool success = contribution.contributor.send(contribution.value);\n            require(success);\n        }\n    }\n\n    function finishCampaign() public returns(bool) {\n        uint contractBalance = address(this).balance;\n        emit logContractBalance(contractBalance);\n        //require(msg.sender == address(this));\n        if (campaignStatus && address(this).balance >= goalValue) {\n//            for (uint i = 0; i < contributions.length; i++) {\n//                msg.sender = address(this);\n//                Contribution storage contribution = contributions[i];\n//                balances[contribution.contributor] -= contribution.value;\n//                bool success = ownerAddress.send(contribution.value);\n//                emit returnContribution(msg.sender, ownerAddress, contribution.value);\n//            }\n            bool success = msg.sender.send(totalValue);\n            if (success) {\n                campaignStatus = false;\n                emit logContributeMoney(address(this), msg.sender, totalValue);\n                contractBalance = address(this).balance;\n                emit logContractBalance(contractBalance);\n                return success;\n            }\n        }\n        return false;\n    }\n\n    function getNumberOfContributions() public view returns(uint) {\n        return contributions.length;\n    }\n\n    function activateCampaign() public {\n        if (!campaignStatus) {\n            campaignStatus = true;\n        }\n    }\n\n    modifier onlyOwner() {\n        require(msg.sender == ownerAddress);\n        _;\n    }\n\n//    modifier onlyContributor() {\n//        require(contributions2[msg.sender]);\n//        _;\n//    }\n}",
  "sourcePath": "/home/tomas/FEI/DP-I/DP-I-project/contracts/CrowdfundingCampaign.sol",
  "compiler": {
    "name": "solc",
    "version": "0.5.16+commit.9c3226ce.Emscripten.clang"
  },
  "schemaVersion": "3.4.4",
  "updatedAt": "2022-03-20T19:56:14.710Z",
  "networkType": "ethereum",
  "devdoc": {
    "methods": {}
  },
  "userdoc": {
    "methods": {}
  }
}