{
  "contractName": "CrowdfundingCampaign",
  "abi": [
    {
      "inputs": [
        {
          "internalType": "string",
          "name": "name",
          "type": "string"
        },
        {
          "internalType": "uint256",
          "name": "goal",
          "type": "uint256"
        },
        {
          "internalType": "address payable",
          "name": "creator",
          "type": "address"
        }
      ],
      "payable": false,
      "stateMutability": "nonpayable",
      "type": "constructor"
    },
    {
      "anonymous": false,
      "inputs": [
        {
          "indexed": true,
          "internalType": "address",
          "name": "_from",
          "type": "address"
        },
        {
          "indexed": true,
          "internalType": "address",
          "name": "_to",
          "type": "address"
        },
        {
          "indexed": false,
          "internalType": "uint256",
          "name": "_value",
          "type": "uint256"
        }
      ],
      "name": "contributeMoney",
      "type": "event"
    },
    {
      "anonymous": false,
      "inputs": [
        {
          "indexed": false,
          "internalType": "address",
          "name": "add",
          "type": "address"
        }
      ],
      "name": "logAddress",
      "type": "event"
    },
    {
      "anonymous": false,
      "inputs": [
        {
          "indexed": false,
          "internalType": "uint256",
          "name": "balance",
          "type": "uint256"
        }
      ],
      "name": "logContractBalance",
      "type": "event"
    },
    {
      "anonymous": false,
      "inputs": [
        {
          "indexed": true,
          "internalType": "address",
          "name": "_from",
          "type": "address"
        },
        {
          "indexed": true,
          "internalType": "address",
          "name": "_to",
          "type": "address"
        },
        {
          "indexed": false,
          "internalType": "uint256",
          "name": "_value",
          "type": "uint256"
        }
      ],
      "name": "returnContribution",
      "type": "event"
    },
    {
      "anonymous": false,
      "inputs": [
        {
          "indexed": false,
          "internalType": "bool",
          "name": "success",
          "type": "bool"
        },
        {
          "indexed": false,
          "internalType": "address payable",
          "name": "_to",
          "type": "address"
        }
      ],
      "name": "transferSuccess",
      "type": "event"
    },
    {
      "payable": true,
      "stateMutability": "payable",
      "type": "fallback"
    },
    {
      "constant": true,
      "inputs": [
        {
          "internalType": "address",
          "name": "",
          "type": "address"
        }
      ],
      "name": "balances",
      "outputs": [
        {
          "internalType": "uint256",
          "name": "",
          "type": "uint256"
        }
      ],
      "payable": false,
      "stateMutability": "view",
      "type": "function"
    },
    {
      "constant": true,
      "inputs": [],
      "name": "campaignName",
      "outputs": [
        {
          "internalType": "string",
          "name": "",
          "type": "string"
        }
      ],
      "payable": false,
      "stateMutability": "view",
      "type": "function"
    },
    {
      "constant": true,
      "inputs": [],
      "name": "campaignStatus",
      "outputs": [
        {
          "internalType": "bool",
          "name": "",
          "type": "bool"
        }
      ],
      "payable": false,
      "stateMutability": "view",
      "type": "function"
    },
    {
      "constant": true,
      "inputs": [
        {
          "internalType": "uint256",
          "name": "",
          "type": "uint256"
        }
      ],
      "name": "contributions",
      "outputs": [
        {
          "internalType": "uint256",
          "name": "value",
          "type": "uint256"
        },
        {
          "internalType": "address payable",
          "name": "contributor",
          "type": "address"
        },
        {
          "internalType": "string",
          "name": "description",
          "type": "string"
        }
      ],
      "payable": false,
      "stateMutability": "view",
      "type": "function"
    },
    {
      "constant": true,
      "inputs": [],
      "name": "goalValue",
      "outputs": [
        {
          "internalType": "uint256",
          "name": "",
          "type": "uint256"
        }
      ],
      "payable": false,
      "stateMutability": "view",
      "type": "function"
    },
    {
      "constant": true,
      "inputs": [],
      "name": "ownerAddress",
      "outputs": [
        {
          "internalType": "address payable",
          "name": "",
          "type": "address"
        }
      ],
      "payable": false,
      "stateMutability": "view",
      "type": "function"
    },
    {
      "constant": true,
      "inputs": [],
      "name": "totalValue",
      "outputs": [
        {
          "internalType": "uint256",
          "name": "",
          "type": "uint256"
        }
      ],
      "payable": false,
      "stateMutability": "view",
      "type": "function"
    },
    {
      "constant": false,
      "inputs": [
        {
          "internalType": "string",
          "name": "description",
          "type": "string"
        }
      ],
      "name": "contribute",
      "outputs": [
        {
          "internalType": "bool",
          "name": "",
          "type": "bool"
        }
      ],
      "payable": true,
      "stateMutability": "payable",
      "type": "function"
    },
    {
      "constant": false,
      "inputs": [
        {
          "internalType": "string",
          "name": "description",
          "type": "string"
        }
      ],
      "name": "contributeCampaign",
      "outputs": [
        {
          "internalType": "bool",
          "name": "",
          "type": "bool"
        }
      ],
      "payable": true,
      "stateMutability": "payable",
      "type": "function"
    },
    {
      "constant": false,
      "inputs": [
        {
          "internalType": "uint256",
          "name": "index",
          "type": "uint256"
        }
      ],
      "name": "withdrawContribution",
      "outputs": [
        {
          "internalType": "bool",
          "name": "",
          "type": "bool"
        }
      ],
      "payable": true,
      "stateMutability": "payable",
      "type": "function"
    },
    {
      "constant": false,
      "inputs": [],
      "name": "cancelCampaign",
      "outputs": [],
      "payable": true,
      "stateMutability": "payable",
      "type": "function"
    },
    {
      "constant": false,
      "inputs": [],
      "name": "finishCampaign",
      "outputs": [
        {
          "internalType": "bool",
          "name": "",
          "type": "bool"
        }
      ],
      "payable": true,
      "stateMutability": "payable",
      "type": "function"
    },
    {
      "constant": true,
      "inputs": [
        {
          "internalType": "address",
          "name": "addr",
          "type": "address"
        }
      ],
      "name": "getContribution",
      "outputs": [
        {
          "internalType": "bool",
          "name": "",
          "type": "bool"
        }
      ],
      "payable": false,
      "stateMutability": "view",
      "type": "function"
    },
    {
      "constant": true,
      "inputs": [],
      "name": "getNumberOfContributions",
      "outputs": [
        {
          "internalType": "uint256",
          "name": "",
          "type": "uint256"
        }
      ],
      "payable": false,
      "stateMutability": "view",
      "type": "function"
    }
  ],
  "bytecode": "0x60806040526000600160006101000a81548160ff0219169083151502179055503480156200002c57600080fd5b50604051620016f7380380620016f7833981810160405260608110156200005257600080fd5b81019080805160405193929190846401000000008211156200007357600080fd5b838201915060208201858111156200008a57600080fd5b8251866001820283011164010000000082111715620000a857600080fd5b8083526020830192505050908051906020019080838360005b83811015620000de578082015181840152602081019050620000c1565b50505050905090810190601f1680156200010c5780820380516001836020036101000a031916815260200191505b506040526020018051906020019092919080519060200190929190505050826000908051906020019062000142929190620001b6565b508160038190555080600560006101000a81548173ffffffffffffffffffffffffffffffffffffffff021916908373ffffffffffffffffffffffffffffffffffffffff160217905550600060028190555060018060006101000a81548160ff02191690831515021790555050505062000265565b828054600181600116156101000203166002900490600052602060002090601f016020900481019282601f10620001f957805160ff19168380011785556200022a565b828001600101855582156200022a579182015b82811115620002295782518255916020019190600101906200020c565b5b5090506200023991906200023d565b5090565b6200026291905b808211156200025e57600081600090555060010162000244565b5090565b90565b61148280620002756000396000f3fe6080604052600436106100dd5760003560e01c80638237fc511161007f578063980e784411610059578063980e7844146105b9578063d25090ff146105c3578063d4c3eea014610609578063f3a4721a14610634576100dd565b80638237fc511461046d57806388e3bbda146105405780638f84aa0914610562576100dd565b806327e235e3116100bb57806327e235e3146102df5780634c7b81d314610344578063583a135d1461036f5780635c43217b1461039a576100dd565b80630724fda9146100f85780631cee07001461018857806321eff7fc14610276575b6100f560405180602001604052806000815250610663565b50005b34801561010457600080fd5b5061010d610863565b6040518080602001828103825283818151815260200191508051906020019080838360005b8381101561014d578082015181840152602081019050610132565b50505050905090810190601f16801561017a5780820380516001836020036101000a031916815260200191505b509250505060405180910390f35b34801561019457600080fd5b506101c1600480360360208110156101ab57600080fd5b8101908080359060200190929190505050610901565b604051808481526020018373ffffffffffffffffffffffffffffffffffffffff1673ffffffffffffffffffffffffffffffffffffffff16815260200180602001828103825283818151815260200191508051906020019080838360005b8381101561023957808201518184015260208101905061021e565b50505050905090810190601f1680156102665780820380516001836020036101000a031916815260200191505b5094505050505060405180910390f35b34801561028257600080fd5b506102c56004803603602081101561029957600080fd5b81019080803573ffffffffffffffffffffffffffffffffffffffff1690602001909291905050506109f0565b604051808215151515815260200191505060405180910390f35b3480156102eb57600080fd5b5061032e6004803603602081101561030257600080fd5b81019080803573ffffffffffffffffffffffffffffffffffffffff169060200190929190505050610a46565b6040518082815260200191505060405180910390f35b34801561035057600080fd5b50610359610a5e565b6040518082815260200191505060405180910390f35b34801561037b57600080fd5b50610384610a6b565b6040518082815260200191505060405180910390f35b610453600480360360208110156103b057600080fd5b81019080803590602001906401000000008111156103cd57600080fd5b8201836020820111156103df57600080fd5b8035906020019184600183028401116401000000008311171561040157600080fd5b91908080601f016020809104026020016040519081016040528093929190818152602001838380828437600081840152601f19601f820116905080830192505050505050509192919290505050610a71565b604051808215151515815260200191505060405180910390f35b6105266004803603602081101561048357600080fd5b81019080803590602001906401000000008111156104a057600080fd5b8201836020820111156104b257600080fd5b803590602001918460018302840111640100000000831117156104d457600080fd5b91908080601f016020809104026020016040519081016040528093929190818152602001838380828437600081840152601f19601f820116905080830192505050505050509192919290505050610663565b604051808215151515815260200191505060405180910390f35b610548610ca8565b604051808215151515815260200191505060405180910390f35b34801561056e57600080fd5b50610577610e62565b604051808273ffffffffffffffffffffffffffffffffffffffff1673ffffffffffffffffffffffffffffffffffffffff16815260200191505060405180910390f35b6105c1610e88565b005b6105ef600480360360208110156105d957600080fd5b8101908080359060200190929190505050610fdf565b604051808215151515815260200191505060405180910390f35b34801561061557600080fd5b5061061e611310565b6040518082815260200191505060405180910390f35b34801561064057600080fd5b50610649611316565b604051808215151515815260200191505060405180910390f35b600061066d611329565b60405180606001604052803481526020013373ffffffffffffffffffffffffffffffffffffffff16815260200184815250905034600760003373ffffffffffffffffffffffffffffffffffffffff1673ffffffffffffffffffffffffffffffffffffffff16815260200190815260200160002060008282540192505081905550600481908060018154018082558091505090600182039060005260206000209060030201600090919290919091506000820151816000015560208201518160010160006101000a81548173ffffffffffffffffffffffffffffffffffffffff021916908373ffffffffffffffffffffffffffffffffffffffff1602179055506040820151816002019080519060200190610788929190611360565b505050506001600660003373ffffffffffffffffffffffffffffffffffffffff1673ffffffffffffffffffffffffffffffffffffffff16815260200190815260200160002060006101000a81548160ff021916908315150217905550346002600082825401925050819055503073ffffffffffffffffffffffffffffffffffffffff163373ffffffffffffffffffffffffffffffffffffffff167f75e10560947108c67673d5f527c85c59ef902377cdb419289a8de9c8c9c3b3b3346040518082815260200191505060405180910390a36001915050919050565b60008054600181600116156101000203166002900480601f0160208091040260200160405190810160405280929190818152602001828054600181600116156101000203166002900480156108f95780601f106108ce576101008083540402835291602001916108f9565b820191906000526020600020905b8154815290600101906020018083116108dc57829003601f168201915b505050505081565b6004818154811061090e57fe5b90600052602060002090600302016000915090508060000154908060010160009054906101000a900473ffffffffffffffffffffffffffffffffffffffff1690806002018054600181600116156101000203166002900480601f0160208091040260200160405190810160405280929190818152602001828054600181600116156101000203166002900480156109e65780601f106109bb576101008083540402835291602001916109e6565b820191906000526020600020905b8154815290600101906020018083116109c957829003601f168201915b5050505050905083565b6000600660008373ffffffffffffffffffffffffffffffffffffffff1673ffffffffffffffffffffffffffffffffffffffff16815260200190815260200160002060009054906101000a900460ff169050919050565b60076020528060005260406000206000915090505481565b6000600480549050905090565b60035481565b6000610a7b611329565b60405180606001604052803481526020013373ffffffffffffffffffffffffffffffffffffffff168152602001848152509050600560009054906101000a900473ffffffffffffffffffffffffffffffffffffffff1673ffffffffffffffffffffffffffffffffffffffff163373ffffffffffffffffffffffffffffffffffffffff167f75e10560947108c67673d5f527c85c59ef902377cdb419289a8de9c8c9c3b3b3346040518082815260200191505060405180910390a36000600560009054906101000a900473ffffffffffffffffffffffffffffffffffffffff1673ffffffffffffffffffffffffffffffffffffffff166108fc349081150290604051600060405180830381858888f1935050505090508015610c9e57600482908060018154018082558091505090600182039060005260206000209060030201600090919290919091506000820151816000015560208201518160010160006101000a81548173ffffffffffffffffffffffffffffffffffffffff021916908373ffffffffffffffffffffffffffffffffffffffff1602179055506040820151816002019080519060200190610c31929190611360565b505050506001600660003373ffffffffffffffffffffffffffffffffffffffff1673ffffffffffffffffffffffffffffffffffffffff16815260200190815260200160002060006101000a81548160ff021916908315150217905550346002600082825401925050819055505b8092505050919050565b6000804790507fd4a125efef1c3fca9f2d63ea257a143623b80df1843e34bf3bb8c3021739faf8816040518082815260200191505060405180910390a17f5f91b0afd2c6ef8da92137ba907bccdc85ec4856a15ad39de3e0eff02be6d70e32604051808273ffffffffffffffffffffffffffffffffffffffff1673ffffffffffffffffffffffffffffffffffffffff16815260200191505060405180910390a1600354471115610e59576000600160006101000a81548160ff0219169083151502179055506000600560009054906101000a900473ffffffffffffffffffffffffffffffffffffffff1673ffffffffffffffffffffffffffffffffffffffff166108fc839081150290604051600060405180830381858888f193505050509050600560009054906101000a900473ffffffffffffffffffffffffffffffffffffffff1673ffffffffffffffffffffffffffffffffffffffff163373ffffffffffffffffffffffffffffffffffffffff167f75e10560947108c67673d5f527c85c59ef902377cdb419289a8de9c8c9c3b3b3846040518082815260200191505060405180910390a38092505050610e5f565b60009150505b90565b600560009054906101000a900473ffffffffffffffffffffffffffffffffffffffff1681565b6000600160006101000a81548160ff02191690831515021790555060008090505b600480549050811015610fdc57600060048281548110610ec557fe5b906000526020600020906003020190508060010160009054906101000a900473ffffffffffffffffffffffffffffffffffffffff1673ffffffffffffffffffffffffffffffffffffffff163073ffffffffffffffffffffffffffffffffffffffff167f8039d0101476f87c0429590f3a2db35571e22e640773817c21171d7f3ddf55e583600001546040518082815260200191505060405180910390a360008160010160009054906101000a900473ffffffffffffffffffffffffffffffffffffffff1673ffffffffffffffffffffffffffffffffffffffff166108fc83600001549081150290604051600060405180830381858888f19350505050905080610fcd57600080fd5b50508080600101915050610ea9565b50565b6000610fe9611329565b60048381548110610ff657fe5b9060005260206000209060030201604051806060016040529081600082015481526020016001820160009054906101000a900473ffffffffffffffffffffffffffffffffffffffff1673ffffffffffffffffffffffffffffffffffffffff1673ffffffffffffffffffffffffffffffffffffffff168152602001600282018054600181600116156101000203166002900480601f0160208091040260200160405190810160405280929190818152602001828054600181600116156101000203166002900480156111085780601f106110dd57610100808354040283529160200191611108565b820191906000526020600020905b8154815290600101906020018083116110eb57829003601f168201915b505050505081525050905060008160200151905060008173ffffffffffffffffffffffffffffffffffffffff166108fc84600001519081150290604051600060405180830381858888f1935050505090507fc074161dd99983b886e446cba4af1f91675e78c5e0140e3858e31b6c85254845818360405180831515151581526020018273ffffffffffffffffffffffffffffffffffffffff1673ffffffffffffffffffffffffffffffffffffffff1681526020019250505060405180910390a18015611305578173ffffffffffffffffffffffffffffffffffffffff163073ffffffffffffffffffffffffffffffffffffffff167f8039d0101476f87c0429590f3a2db35571e22e640773817c21171d7f3ddf55e585600001516040518082815260200191505060405180910390a36004858154811061124457fe5b90600052602060002090600302016000808201600090556001820160006101000a81549073ffffffffffffffffffffffffffffffffffffffff021916905560028201600061129291906113e0565b5050600060066000856020015173ffffffffffffffffffffffffffffffffffffffff1673ffffffffffffffffffffffffffffffffffffffff16815260200190815260200160002060006101000a81548160ff02191690831515021790555082600001516002600082825403925050819055505b809350505050919050565b60025481565b600160009054906101000a900460ff1681565b604051806060016040528060008152602001600073ffffffffffffffffffffffffffffffffffffffff168152602001606081525090565b828054600181600116156101000203166002900490600052602060002090601f016020900481019282601f106113a157805160ff19168380011785556113cf565b828001600101855582156113cf579182015b828111156113ce5782518255916020019190600101906113b3565b5b5090506113dc9190611428565b5090565b50805460018160011615610100020316600290046000825580601f106114065750611425565b601f0160209004906000526020600020908101906114249190611428565b5b50565b61144a91905b8082111561144657600081600090555060010161142e565b5090565b9056fea265627a7a72315820642a94cadd2c005d13234f88f4f607d8273ac0e4d6d07f378da348bbb8cc94df64736f6c63430005100032",
  "source": "pragma solidity >=0.4.21 <0.8.0;\n\ncontract CrowdfundingCampaign {\n\n    string public campaignName;\n\n    struct Contribution {\n        uint value;\n        address payable contributor;\n        string description;\n    }\n\n    bool public campaignStatus = false;\n    uint public totalValue;\n    uint public goalValue;\n    Contribution [] public contributions;\n    address payable public ownerAddress;\n    mapping(address => bool) contributors;\n    mapping (address => uint256) public balances;\n\n    constructor(string memory name, uint goal, address payable creator) public {\n        campaignName = name ;\n        goalValue = goal;\n        ownerAddress = creator;\n        totalValue = 0;\n        campaignStatus = true;\n    }\n\n    function () external payable {\n        contributeCampaign(\"\");\n    }\n\n    event contributeMoney(address indexed _from,  address indexed _to, uint _value);\n    event returnContribution(address indexed _from, address indexed _to, uint _value);\n    event transferSuccess(bool success, address payable _to);\n    event logContractBalance(uint balance);\n    event logAddress(address add);\n\n    function contribute(string memory description) public payable returns(bool) {\n        Contribution memory newContribution = Contribution({\n            description: description,\n            value: msg.value,\n            contributor: msg.sender\n        });\n        emit contributeMoney(msg.sender, ownerAddress, msg.value);\n        bool success = ownerAddress.send(msg.value);\n        if (success) {\n            contributions.push(newContribution);\n            contributors[msg.sender] = true;\n            totalValue += msg.value;\n        }\n        return success;\n    }\n\n    function contributeCampaign(string memory description) public payable returns(bool) {\n        Contribution memory newContribution = Contribution({\n            description: description,\n            value: msg.value,\n            contributor: msg.sender\n        });\n        // address payable campaignPayableAddress = address(uint160(address(this)));\n        // bool success = campaignPayableAddress.send(msg.value);\n\n        balances[msg.sender] += msg.value;\n        contributions.push(newContribution);\n        contributors[msg.sender] = true;\n        totalValue += msg.value;\n        emit contributeMoney(msg.sender, address(this), msg.value);\n        return true;\n    }\n\n    function withdrawContribution(uint index) public payable returns(bool) {\n        Contribution memory contribution = contributions[index];\n\n        address payable contributorAddress = contribution.contributor;\n\n        bool success = contributorAddress.send(contribution.value);\n        emit transferSuccess(success, contributorAddress);\n        if (success) {\n            emit returnContribution(address(this), contributorAddress, contribution.value);\n\n            delete contributions[index];\n            contributors[contribution.contributor] = false;\n            totalValue -= contribution.value;\n        }\n        return success;\n    }\n\n    function cancelCampaign() public payable {\n        campaignStatus = false;\n        for (uint i = 0; i < contributions.length; i++) {\n            Contribution storage contribution = contributions[i];\n            emit returnContribution(address(this), contribution.contributor, contribution.value);\n            bool success = contribution.contributor.send(contribution.value);\n            require(success);\n        }\n    }\n\n    function finishCampaign() payable external returns(bool) {\n        uint contractBalance = address(this).balance;\n        emit logContractBalance(contractBalance);\n        emit logAddress(tx.origin);\n        //require(msg.sender == address(this));\n\n        if (address(this).balance > goalValue) {\n            campaignStatus = false;\n//            for (uint i = 0; i < contributions.length; i++) {\n//                msg.sender = address(this);\n//                Contribution storage contribution = contributions[i];\n//                balances[contribution.contributor] -= contribution.value;\n//                bool success = ownerAddress.send(contribution.value);\n//                emit returnContribution(msg.sender, ownerAddress, contribution.value);\n//            }\n            bool success = ownerAddress.send(contractBalance);\n            emit contributeMoney(msg.sender, ownerAddress, contractBalance);\n            return success;\n        }\n        return false;\n    }\n\n    function getContribution(address addr) public view returns(bool) {\n        return contributors[addr];\n    }\n\n    function getNumberOfContributions() public view returns(uint) {\n        return contributions.length;\n    }\n\n    modifier onlyOwner() {\n        require(msg.sender == ownerAddress);\n        _;\n    }\n\n    modifier onlyContributor() {\n        require(contributors[msg.sender]);\n        _;\n    }\n}",
  "sourcePath": "/home/tomas/FEI/DP-I/DP-I-project/contracts/CrowdfundingCampaign.sol",
  "compiler": {
    "name": "solc",
    "version": "0.5.16+commit.9c3226ce.Emscripten.clang"
  },
  "schemaVersion": "3.4.4",
  "updatedAt": "2022-03-08T20:09:28.607Z",
  "networkType": "ethereum",
  "devdoc": {
    "methods": {}
  },
  "userdoc": {
    "methods": {}
  }
}