{
  "contractName": "CrowdfundingCampaign",
  "abi": [
    {
      "inputs": [
        {
          "internalType": "string",
          "name": "name",
          "type": "string"
        },
        {
          "internalType": "uint256",
          "name": "goal",
          "type": "uint256"
        },
        {
          "internalType": "address payable",
          "name": "creator",
          "type": "address"
        }
      ],
      "payable": false,
      "stateMutability": "nonpayable",
      "type": "constructor"
    },
    {
      "anonymous": false,
      "inputs": [
        {
          "indexed": false,
          "internalType": "address",
          "name": "add",
          "type": "address"
        }
      ],
      "name": "logAddress",
      "type": "event"
    },
    {
      "anonymous": false,
      "inputs": [
        {
          "indexed": false,
          "internalType": "uint256",
          "name": "balance",
          "type": "uint256"
        }
      ],
      "name": "logContractBalance",
      "type": "event"
    },
    {
      "anonymous": false,
      "inputs": [
        {
          "indexed": true,
          "internalType": "address",
          "name": "_from",
          "type": "address"
        },
        {
          "indexed": true,
          "internalType": "address",
          "name": "_to",
          "type": "address"
        },
        {
          "indexed": false,
          "internalType": "uint256",
          "name": "_value",
          "type": "uint256"
        }
      ],
      "name": "logContributeMoney",
      "type": "event"
    },
    {
      "anonymous": false,
      "inputs": [
        {
          "indexed": false,
          "internalType": "uint256",
          "name": "length",
          "type": "uint256"
        }
      ],
      "name": "logContributions2length",
      "type": "event"
    },
    {
      "anonymous": false,
      "inputs": [
        {
          "indexed": true,
          "internalType": "address",
          "name": "_from",
          "type": "address"
        },
        {
          "indexed": true,
          "internalType": "address",
          "name": "_to",
          "type": "address"
        },
        {
          "indexed": false,
          "internalType": "uint256",
          "name": "_value",
          "type": "uint256"
        }
      ],
      "name": "logReturnContribution",
      "type": "event"
    },
    {
      "anonymous": false,
      "inputs": [
        {
          "indexed": false,
          "internalType": "bool",
          "name": "success",
          "type": "bool"
        },
        {
          "indexed": false,
          "internalType": "address payable",
          "name": "_to",
          "type": "address"
        }
      ],
      "name": "logWithdrawalTransferSuccess",
      "type": "event"
    },
    {
      "payable": true,
      "stateMutability": "payable",
      "type": "fallback"
    },
    {
      "constant": true,
      "inputs": [
        {
          "internalType": "address",
          "name": "",
          "type": "address"
        }
      ],
      "name": "addressMapping",
      "outputs": [
        {
          "internalType": "bool",
          "name": "",
          "type": "bool"
        }
      ],
      "payable": false,
      "stateMutability": "view",
      "type": "function"
    },
    {
      "constant": true,
      "inputs": [],
      "name": "campaignName",
      "outputs": [
        {
          "internalType": "string",
          "name": "",
          "type": "string"
        }
      ],
      "payable": false,
      "stateMutability": "view",
      "type": "function"
    },
    {
      "constant": true,
      "inputs": [],
      "name": "campaignStatus",
      "outputs": [
        {
          "internalType": "string",
          "name": "",
          "type": "string"
        }
      ],
      "payable": false,
      "stateMutability": "view",
      "type": "function"
    },
    {
      "constant": true,
      "inputs": [
        {
          "internalType": "address",
          "name": "",
          "type": "address"
        },
        {
          "internalType": "uint256",
          "name": "",
          "type": "uint256"
        }
      ],
      "name": "contributions",
      "outputs": [
        {
          "internalType": "uint256",
          "name": "value",
          "type": "uint256"
        },
        {
          "internalType": "string",
          "name": "description",
          "type": "string"
        }
      ],
      "payable": false,
      "stateMutability": "view",
      "type": "function"
    },
    {
      "constant": true,
      "inputs": [
        {
          "internalType": "uint256",
          "name": "",
          "type": "uint256"
        }
      ],
      "name": "contributors",
      "outputs": [
        {
          "internalType": "address",
          "name": "",
          "type": "address"
        }
      ],
      "payable": false,
      "stateMutability": "view",
      "type": "function"
    },
    {
      "constant": true,
      "inputs": [],
      "name": "goalValue",
      "outputs": [
        {
          "internalType": "uint256",
          "name": "",
          "type": "uint256"
        }
      ],
      "payable": false,
      "stateMutability": "view",
      "type": "function"
    },
    {
      "constant": true,
      "inputs": [],
      "name": "ownerAddress",
      "outputs": [
        {
          "internalType": "address payable",
          "name": "",
          "type": "address"
        }
      ],
      "payable": false,
      "stateMutability": "view",
      "type": "function"
    },
    {
      "constant": true,
      "inputs": [],
      "name": "totalValue",
      "outputs": [
        {
          "internalType": "uint256",
          "name": "",
          "type": "uint256"
        }
      ],
      "payable": false,
      "stateMutability": "view",
      "type": "function"
    },
    {
      "constant": false,
      "inputs": [
        {
          "internalType": "string",
          "name": "description",
          "type": "string"
        }
      ],
      "name": "contributeCampaign",
      "outputs": [
        {
          "internalType": "bool",
          "name": "",
          "type": "bool"
        }
      ],
      "payable": true,
      "stateMutability": "payable",
      "type": "function"
    },
    {
      "constant": false,
      "inputs": [
        {
          "internalType": "uint256",
          "name": "index",
          "type": "uint256"
        }
      ],
      "name": "withdrawContribution",
      "outputs": [
        {
          "internalType": "bool",
          "name": "",
          "type": "bool"
        }
      ],
      "payable": true,
      "stateMutability": "payable",
      "type": "function"
    },
    {
      "constant": false,
      "inputs": [],
      "name": "cancelCampaign",
      "outputs": [],
      "payable": false,
      "stateMutability": "nonpayable",
      "type": "function"
    },
    {
      "constant": false,
      "inputs": [],
      "name": "finishCampaign",
      "outputs": [
        {
          "internalType": "bool",
          "name": "",
          "type": "bool"
        }
      ],
      "payable": false,
      "stateMutability": "nonpayable",
      "type": "function"
    },
    {
      "constant": true,
      "inputs": [],
      "name": "getNumberOfContributors",
      "outputs": [
        {
          "internalType": "uint256",
          "name": "",
          "type": "uint256"
        }
      ],
      "payable": false,
      "stateMutability": "view",
      "type": "function"
    },
    {
      "constant": true,
      "inputs": [
        {
          "internalType": "address",
          "name": "contributorAddress",
          "type": "address"
        }
      ],
      "name": "getNumberOfAddressContribution",
      "outputs": [
        {
          "internalType": "uint256",
          "name": "",
          "type": "uint256"
        }
      ],
      "payable": false,
      "stateMutability": "view",
      "type": "function"
    }
  ],
  "bytecode": "0x60806040526040518060400160405280600981526020017f6e6f6e616374697665000000000000000000000000000000000000000000000081525060019080519060200190620000519291906200021d565b503480156200005f57600080fd5b5060405162001d0838038062001d08833981810160405260608110156200008557600080fd5b8101908080516040519392919084640100000000821115620000a657600080fd5b83820191506020820185811115620000bd57600080fd5b8251866001820283011164010000000082111715620000db57600080fd5b8083526020830192505050908051906020019080838360005b8381101562000111578082015181840152602081019050620000f4565b50505050905090810190601f1680156200013f5780820380516001836020036101000a031916815260200191505b5060405260200180519060200190929190805190602001909291905050508260009080519060200190620001759291906200021d565b508160038190555080600760006101000a81548173ffffffffffffffffffffffffffffffffffffffff021916908373ffffffffffffffffffffffffffffffffffffffff16021790555060006002819055506040518060400160405280600681526020017f616374697665000000000000000000000000000000000000000000000000000081525060019080519060200190620002139291906200021d565b50505050620002cc565b828054600181600116156101000203166002900490600052602060002090601f016020900481019282601f106200026057805160ff191683800117855562000291565b8280016001018555821562000291579182015b828111156200029057825182559160200191906001019062000273565b5b509050620002a09190620002a4565b5090565b620002c991905b80821115620002c5576000816000905550600101620002ab565b5090565b90565b611a2c80620002dc6000396000f3fe6080604052600436106100dd5760003560e01c806388e3bbda1161007f578063980e784411610059578063980e78441461055b578063d25090ff14610572578063d4c3eea0146105b8578063f3a4721a146105e3576100dd565b806388e3bbda146104aa5780638bba143c146104d95780638f84aa0914610504576100dd565b80633cb5d100116100bb5780633cb5d10014610256578063550b521c146102d1578063583a135d146103ac5780638237fc51146103d7576100dd565b80630494cd9a146100f85780630724fda9146101615780632e5bb4ff146101f1575b6100f560405180602001604052806000815250610673565b50005b34801561010457600080fd5b506101476004803603602081101561011b57600080fd5b81019080803573ffffffffffffffffffffffffffffffffffffffff169060200190929190505050610a2f565b604051808215151515815260200191505060405180910390f35b34801561016d57600080fd5b50610176610a4f565b6040518080602001828103825283818151815260200191508051906020019080838360005b838110156101b657808201518184015260208101905061019b565b50505050905090810190601f1680156101e35780820380516001836020036101000a031916815260200191505b509250505060405180910390f35b3480156101fd57600080fd5b506102406004803603602081101561021457600080fd5b81019080803573ffffffffffffffffffffffffffffffffffffffff169060200190929190505050610aed565b6040518082815260200191505060405180910390f35b34801561026257600080fd5b5061028f6004803603602081101561027957600080fd5b8101908080359060200190929190505050610b39565b604051808273ffffffffffffffffffffffffffffffffffffffff1673ffffffffffffffffffffffffffffffffffffffff16815260200191505060405180910390f35b3480156102dd57600080fd5b5061032a600480360360408110156102f457600080fd5b81019080803573ffffffffffffffffffffffffffffffffffffffff16906020019092919080359060200190929190505050610b75565b6040518083815260200180602001828103825283818151815260200191508051906020019080838360005b83811015610370578082015181840152602081019050610355565b50505050905090810190601f16801561039d5780820380516001836020036101000a031916815260200191505b50935050505060405180910390f35b3480156103b857600080fd5b506103c1610c4b565b6040518082815260200191505060405180910390f35b610490600480360360208110156103ed57600080fd5b810190808035906020019064010000000081111561040a57600080fd5b82018360208201111561041c57600080fd5b8035906020019184600183028401116401000000008311171561043e57600080fd5b91908080601f016020809104026020016040519081016040528093929190818152602001838380828437600081840152601f19601f820116905080830192505050505050509192919290505050610673565b604051808215151515815260200191505060405180910390f35b3480156104b657600080fd5b506104bf610c51565b604051808215151515815260200191505060405180910390f35b3480156104e557600080fd5b506104ee610e8c565b6040518082815260200191505060405180910390f35b34801561051057600080fd5b50610519610e99565b604051808273ffffffffffffffffffffffffffffffffffffffff1673ffffffffffffffffffffffffffffffffffffffff16815260200191505060405180910390f35b34801561056757600080fd5b50610570610ebf565b005b61059e6004803603602081101561058857600080fd5b81019080803590602001909291905050506111b3565b604051808215151515815260200191505060405180910390f35b3480156105c457600080fd5b506105cd6116dc565b6040518082815260200191505060405180910390f35b3480156105ef57600080fd5b506105f86116e2565b6040518080602001828103825283818151815260200191508051906020019080838360005b8381101561063857808201518184015260208101905061061d565b50505050905090810190601f1680156106655780820380516001836020036101000a031916815260200191505b509250505060405180910390f35b60006040518060400160405280600681526020017f6163746976650000000000000000000000000000000000000000000000000000815250805190602001206001604051808280546001816001161561010002031660029004801561070f5780601f106106ed57610100808354040283529182019161070f565b820191906000526020600020905b8154815290600101906020018083116106fb575b5050915050604051809103902014156109de5761072a611780565b60405180604001604052803481526020018481525090507fc93155c9fcf38b90fe2af24d44877f0511bc45c3f202276cb649ed21fe233002600660003373ffffffffffffffffffffffffffffffffffffffff1673ffffffffffffffffffffffffffffffffffffffff168152602001908152602001600020805490506040518082815260200191505060405180910390a1600660003373ffffffffffffffffffffffffffffffffffffffff1673ffffffffffffffffffffffffffffffffffffffff168152602001908152602001600020819080600181540180825580915050906001820390600052602060002090600202016000909192909190915060008201518160000155602082015181600101908051906020019061084b92919061179a565b50505050600560003373ffffffffffffffffffffffffffffffffffffffff1673ffffffffffffffffffffffffffffffffffffffff16815260200190815260200160002060009054906101000a900460ff1661095f576001600560003373ffffffffffffffffffffffffffffffffffffffff1673ffffffffffffffffffffffffffffffffffffffff16815260200190815260200160002060006101000a81548160ff02191690831515021790555060043390806001815401808255809150509060018203906000526020600020016000909192909190916101000a81548173ffffffffffffffffffffffffffffffffffffffff021916908373ffffffffffffffffffffffffffffffffffffffff160217905550505b346002600082825401925050819055503073ffffffffffffffffffffffffffffffffffffffff163373ffffffffffffffffffffffffffffffffffffffff167fdcfd6735be7030902acaa6f041bf0e0137b04aedb3a8f5313c5985dce26fe7fa346040518082815260200191505060405180910390a36001915050610a2a565b3373ffffffffffffffffffffffffffffffffffffffff166108fc349081150290604051600060405180830381858888f19350505050158015610a24573d6000803e3d6000fd5b50600090505b919050565b60056020528060005260406000206000915054906101000a900460ff1681565b60008054600181600116156101000203166002900480601f016020809104026020016040519081016040528092919081815260200182805460018160011615610100020316600290048015610ae55780601f10610aba57610100808354040283529160200191610ae5565b820191906000526020600020905b815481529060010190602001808311610ac857829003601f168201915b505050505081565b6000600660008373ffffffffffffffffffffffffffffffffffffffff1673ffffffffffffffffffffffffffffffffffffffff168152602001908152602001600020805490509050919050565b60048181548110610b4657fe5b906000526020600020016000915054906101000a900473ffffffffffffffffffffffffffffffffffffffff1681565b60066020528160005260406000208181548110610b8e57fe5b906000526020600020906002020160009150915050806000015490806001018054600181600116156101000203166002900480601f016020809104026020016040519081016040528092919081815260200182805460018160011615610100020316600290048015610c415780601f10610c1657610100808354040283529160200191610c41565b820191906000526020600020905b815481529060010190602001808311610c2457829003601f168201915b5050505050905082565b60035481565b6000804790507fd4a125efef1c3fca9f2d63ea257a143623b80df1843e34bf3bb8c3021739faf8816040518082815260200191505060405180910390a16040518060400160405280600681526020017f61637469766500000000000000000000000000000000000000000000000000008152508051906020012060016040518082805460018160011615610100020316600290048015610d285780601f10610d06576101008083540402835291820191610d28565b820191906000526020600020905b815481529060010190602001808311610d14575b50509150506040518091039020148015610d4457506003544710155b15610e835760003373ffffffffffffffffffffffffffffffffffffffff166108fc6002549081150290604051600060405180830381858888f1935050505090508015610e81576040518060400160405280600881526020017f66696e697368656400000000000000000000000000000000000000000000000081525060019080519060200190610dd592919061181a565b503373ffffffffffffffffffffffffffffffffffffffff163073ffffffffffffffffffffffffffffffffffffffff167fdcfd6735be7030902acaa6f041bf0e0137b04aedb3a8f5313c5985dce26fe7fa6002546040518082815260200191505060405180910390a34791507fd4a125efef1c3fca9f2d63ea257a143623b80df1843e34bf3bb8c3021739faf8826040518082815260200191505060405180910390a18092505050610e89565b505b60009150505b90565b6000600480549050905090565b600760009054906101000a900473ffffffffffffffffffffffffffffffffffffffff1681565b6040518060400160405280600881526020017f63616e63656c656400000000000000000000000000000000000000000000000081525060019080519060200190610f0a92919061181a565b5060008090505b6004805490508110156111b0577fd4a125efef1c3fca9f2d63ea257a143623b80df1843e34bf3bb8c3021739faf8476040518082815260200191505060405180910390a160008090505b6006600060048481548110610f6c57fe5b9060005260206000200160009054906101000a900473ffffffffffffffffffffffffffffffffffffffff1673ffffffffffffffffffffffffffffffffffffffff1673ffffffffffffffffffffffffffffffffffffffff168152602001908152602001600020805490508110156111a25760006006600060048581548110610fef57fe5b9060005260206000200160009054906101000a900473ffffffffffffffffffffffffffffffffffffffff1673ffffffffffffffffffffffffffffffffffffffff1673ffffffffffffffffffffffffffffffffffffffff168152602001908152602001600020828154811061105f57fe5b9060005260206000209060020201905060006004848154811061107e57fe5b9060005260206000200160009054906101000a900473ffffffffffffffffffffffffffffffffffffffff16905060008173ffffffffffffffffffffffffffffffffffffffff166108fc84600001549081150290604051600060405180830381858888f193505050509050600485815481106110f557fe5b9060005260206000200160009054906101000a900473ffffffffffffffffffffffffffffffffffffffff1673ffffffffffffffffffffffffffffffffffffffff163073ffffffffffffffffffffffffffffffffffffffff167f13c5f279f95e211e35647815ce24db5bffac028d5b9800eb778daa6b7f561ed785600001546040518082815260200191505060405180910390a38061119257600080fd5b5050508080600101915050610f5b565b508080600101915050610f11565b50565b6000600560003373ffffffffffffffffffffffffffffffffffffffff1673ffffffffffffffffffffffffffffffffffffffff16815260200190815260200160002060009054906101000a900460ff16156116d2576060600660003373ffffffffffffffffffffffffffffffffffffffff1673ffffffffffffffffffffffffffffffffffffffff168152602001908152602001600020805480602002602001604051908101604052809291908181526020016000905b82821015611346578382906000526020600020906002020160405180604001604052908160008201548152602001600182018054600181600116156101000203166002900480601f01602080910402602001604051908101604052809291908181526020018280546001816001161561010002031660029004801561132e5780601f106113035761010080835404028352916020019161132e565b820191906000526020600020905b81548152906001019060200180831161131157829003601f168201915b50505050508152505081526020019060010190611268565b5050505090506000815111801561135d5750828151115b156116d05761136a611780565b81848151811061137657fe5b6020026020010151905060003373ffffffffffffffffffffffffffffffffffffffff166108fc83600001519081150290604051600060405180830381858888f1935050505090507f54e33288800614b818e34d475e01cc8fbc4bb0312a0eda7c6a50da129a12f558813360405180831515151581526020018273ffffffffffffffffffffffffffffffffffffffff1673ffffffffffffffffffffffffffffffffffffffff1681526020019250505060405180910390a180156116c5573373ffffffffffffffffffffffffffffffffffffffff163073ffffffffffffffffffffffffffffffffffffffff167f13c5f279f95e211e35647815ce24db5bffac028d5b9800eb778daa6b7f561ed784600001516040518082815260200191505060405180910390a360006001600660003373ffffffffffffffffffffffffffffffffffffffff1673ffffffffffffffffffffffffffffffffffffffff1681526020019081526020016000208054905003905060008690505b818110156115e857600660003373ffffffffffffffffffffffffffffffffffffffff1673ffffffffffffffffffffffffffffffffffffffff168152602001908152602001600020600182018154811061154057fe5b9060005260206000209060020201600660003373ffffffffffffffffffffffffffffffffffffffff1673ffffffffffffffffffffffffffffffffffffffff168152602001908152602001600020828154811061159857fe5b906000526020600020906002020160008201548160000155600182018160010190805460018160011615610100020316600290046115d792919061189a565b5090505080806001019150506114eb565b50600660003373ffffffffffffffffffffffffffffffffffffffff1673ffffffffffffffffffffffffffffffffffffffff168152602001908152602001600020818154811061163357fe5b906000526020600020906002020160008082016000905560018201600061165a9190611921565b5050600660003373ffffffffffffffffffffffffffffffffffffffff1673ffffffffffffffffffffffffffffffffffffffff1681526020019081526020016000208054809190600190036116ae9190611969565b508260000151600260008282540392505081905550505b8093505050506116d7565b505b600090505b919050565b60025481565b60018054600181600116156101000203166002900480601f0160208091040260200160405190810160405280929190818152602001828054600181600116156101000203166002900480156117785780601f1061174d57610100808354040283529160200191611778565b820191906000526020600020905b81548152906001019060200180831161175b57829003601f168201915b505050505081565b604051806040016040528060008152602001606081525090565b828054600181600116156101000203166002900490600052602060002090601f016020900481019282601f106117db57805160ff1916838001178555611809565b82800160010185558215611809579182015b828111156118085782518255916020019190600101906117ed565b5b509050611816919061199b565b5090565b828054600181600116156101000203166002900490600052602060002090601f016020900481019282601f1061185b57805160ff1916838001178555611889565b82800160010185558215611889579182015b8281111561188857825182559160200191906001019061186d565b5b509050611896919061199b565b5090565b828054600181600116156101000203166002900490600052602060002090601f016020900481019282601f106118d35780548555611910565b8280016001018555821561191057600052602060002091601f016020900482015b8281111561190f5782548255916001019190600101906118f4565b5b50905061191d919061199b565b5090565b50805460018160011615610100020316600290046000825580601f106119475750611966565b601f016020900490600052602060002090810190611965919061199b565b5b50565b8154818355818111156119965760020281600202836000526020600020918201910161199591906119c0565b5b505050565b6119bd91905b808211156119b95760008160009055506001016119a1565b5090565b90565b6119f491905b808211156119f0576000808201600090556001820160006119e79190611921565b506002016119c6565b5090565b9056fea265627a7a723158205346b3e08be6f42d99d1f981d9cd58ee58ae489f54f593d0530a82fbed675d5f64736f6c63430005100032",
  "source": "pragma solidity >=0.4.21 <0.8.0;\n\ncontract CrowdfundingCampaign {\n\n    string public campaignName;\n\n    struct Contribution {\n        uint256 value;\n        string description;\n    }\n\n    string public campaignStatus = \"nonactive\";\n    uint256 public totalValue;\n    uint256 public goalValue;\n    address [] public contributors;\n    mapping (address => bool) public addressMapping;\n    mapping (address => Contribution[]) public contributions;\n    address payable public ownerAddress;\n\n    constructor(string memory name, uint256 goal, address payable creator) public {\n        campaignName = name ;\n        goalValue = goal;\n        ownerAddress = creator;\n        totalValue = 0;\n        campaignStatus = \"active\";\n    }\n\n    function () external payable {\n        contributeCampaign(\"\");\n    }\n\n    event logContributeMoney(address indexed _from,  address indexed _to, uint256 _value);\n    event logReturnContribution(address indexed _from, address indexed _to, uint256 _value);\n    event logWithdrawalTransferSuccess(bool success, address payable _to);\n    event logContractBalance(uint256 balance);\n    event logAddress(address add);\n    event logContributions2length(uint length);\n\n    function contributeCampaign(string memory description) public payable returns(bool) {\n        if (keccak256(bytes(campaignStatus)) == keccak256(bytes(\"active\"))) {\n            Contribution memory newContribution = Contribution({\n                description: description,\n                value: msg.value\n            });\n            emit logContributions2length(contributions[msg.sender].length);\n            contributions[msg.sender].push(newContribution);\n\n            if (!addressMapping[msg.sender]) {\n                addressMapping[msg.sender] = true;\n                contributors.push(msg.sender);\n            }\n\n            totalValue += msg.value;\n            emit logContributeMoney(msg.sender, address(this), msg.value);\n            return true;\n        } else {\n            msg.sender.transfer(msg.value);\n            return false;\n        }\n    }\n\n    function withdrawContribution(uint index) public payable returns(bool) {\n        if (addressMapping[msg.sender]) {\n            Contribution[] memory contributionsArray = contributions[msg.sender];\n            if (contributionsArray.length > 0 && contributionsArray.length > index) {\n                Contribution memory contribution = contributionsArray[index];\n\n                bool success = msg.sender.send(contribution.value);\n                emit logWithdrawalTransferSuccess(success, msg.sender);\n                if (success) {\n                    emit logReturnContribution(address(this), msg.sender, contribution.value);\n                    uint contributorsContributions = contributions[msg.sender].length - 1;\n                    for (uint i = index; i < contributorsContributions; i++){\n                        contributions[msg.sender][i] = contributions[msg.sender][i + 1];\n                    }\n                    delete contributions[msg.sender][contributorsContributions];\n                    contributions[msg.sender].length--;\n                    totalValue -= contribution.value;\n                }\n                return success;\n            }\n        }\n        return false;\n    }\n\n    function cancelCampaign() public {\n        campaignStatus = \"canceled\";\n        for (uint i = 0; i < contributors.length; i++) {\n            emit logContractBalance(address(this).balance);\n\n            for (uint j = 0; j < contributions[contributors[i]].length; j++) {\n                Contribution storage contribution = contributions[contributors[i]][j];\n                address payable contributorWallet = address(uint160(contributors[i]));\n                bool success = contributorWallet.send(contribution.value);\n                emit logReturnContribution(address(this), contributors[i], contribution.value);\n                require(success);\n            }\n        }\n    }\n\n    function finishCampaign() public returns(bool) {\n        uint256 contractBalance = address(this).balance;\n        emit logContractBalance(contractBalance);\n        if (keccak256(bytes(campaignStatus)) == keccak256(bytes(\"active\")) && address(this).balance >= goalValue) {\n            bool success = msg.sender.send(totalValue);\n            if (success) {\n                campaignStatus = \"finished\";\n                emit logContributeMoney(address(this), msg.sender, totalValue);\n                contractBalance = address(this).balance;\n                emit logContractBalance(contractBalance);\n                return success;\n            }\n        }\n        return false;\n    }\n\n    function getNumberOfContributors() public view returns(uint) {\n        return contributors.length;\n    }\n\n    function getNumberOfAddressContribution(address contributorAddress) public view returns(uint) {\n        return contributions[contributorAddress].length;\n    }\n\n    modifier onlyCreator() {\n        require(msg.sender == ownerAddress);\n        _;\n    }\n\n    modifier onlyContributor() {\n        require(addressMapping[msg.sender]);\n        _;\n    }\n}",
  "sourcePath": "/home/tomas/FEI/DP-I/DP-I-project/contracts/CrowdfundingCampaign.sol",
  "compiler": {
    "name": "solc",
    "version": "0.5.16+commit.9c3226ce.Emscripten.clang"
  },
  "schemaVersion": "3.4.4",
  "updatedAt": "2022-04-09T15:31:28.000Z",
  "networkType": "ethereum",
  "devdoc": {
    "methods": {}
  },
  "userdoc": {
    "methods": {}
  }
}