{
  "contractName": "CrowdfundingCampaign",
  "abi": [
    {
      "inputs": [
        {
          "internalType": "string",
          "name": "campaignName",
          "type": "string"
        },
        {
          "internalType": "uint256",
          "name": "minimum",
          "type": "uint256"
        },
        {
          "internalType": "address payable",
          "name": "creator",
          "type": "address"
        }
      ],
      "payable": false,
      "stateMutability": "nonpayable",
      "type": "constructor"
    },
    {
      "anonymous": false,
      "inputs": [
        {
          "indexed": true,
          "internalType": "address",
          "name": "_from",
          "type": "address"
        },
        {
          "indexed": false,
          "internalType": "uint256",
          "name": "_value",
          "type": "uint256"
        }
      ],
      "name": "contributeMoney",
      "type": "event"
    },
    {
      "constant": true,
      "inputs": [
        {
          "internalType": "uint256",
          "name": "",
          "type": "uint256"
        }
      ],
      "name": "contributions",
      "outputs": [
        {
          "internalType": "uint256",
          "name": "value",
          "type": "uint256"
        },
        {
          "internalType": "address",
          "name": "contributor",
          "type": "address"
        },
        {
          "internalType": "string",
          "name": "description",
          "type": "string"
        }
      ],
      "payable": false,
      "stateMutability": "view",
      "type": "function"
    },
    {
      "constant": true,
      "inputs": [],
      "name": "minimumContribution",
      "outputs": [
        {
          "internalType": "uint256",
          "name": "",
          "type": "uint256"
        }
      ],
      "payable": false,
      "stateMutability": "view",
      "type": "function"
    },
    {
      "constant": true,
      "inputs": [],
      "name": "name",
      "outputs": [
        {
          "internalType": "string",
          "name": "",
          "type": "string"
        }
      ],
      "payable": false,
      "stateMutability": "view",
      "type": "function"
    },
    {
      "constant": true,
      "inputs": [],
      "name": "ownerAddress",
      "outputs": [
        {
          "internalType": "address payable",
          "name": "",
          "type": "address"
        }
      ],
      "payable": false,
      "stateMutability": "view",
      "type": "function"
    },
    {
      "constant": true,
      "inputs": [],
      "name": "totalValue",
      "outputs": [
        {
          "internalType": "uint256",
          "name": "",
          "type": "uint256"
        }
      ],
      "payable": false,
      "stateMutability": "view",
      "type": "function"
    },
    {
      "constant": false,
      "inputs": [
        {
          "internalType": "string",
          "name": "description",
          "type": "string"
        }
      ],
      "name": "contribute",
      "outputs": [
        {
          "internalType": "bool",
          "name": "",
          "type": "bool"
        }
      ],
      "payable": true,
      "stateMutability": "payable",
      "type": "function"
    },
    {
      "constant": false,
      "inputs": [
        {
          "internalType": "uint256",
          "name": "money",
          "type": "uint256"
        }
      ],
      "name": "contribute2",
      "outputs": [],
      "payable": true,
      "stateMutability": "payable",
      "type": "function"
    },
    {
      "constant": false,
      "inputs": [
        {
          "internalType": "uint256",
          "name": "money",
          "type": "uint256"
        },
        {
          "internalType": "address",
          "name": "toAddress",
          "type": "address"
        },
        {
          "internalType": "string",
          "name": "description",
          "type": "string"
        }
      ],
      "name": "contribute3",
      "outputs": [
        {
          "internalType": "bool",
          "name": "",
          "type": "bool"
        }
      ],
      "payable": true,
      "stateMutability": "payable",
      "type": "function"
    },
    {
      "constant": false,
      "inputs": [
        {
          "internalType": "uint256",
          "name": "index",
          "type": "uint256"
        }
      ],
      "name": "retrieveContribution",
      "outputs": [
        {
          "internalType": "bool",
          "name": "",
          "type": "bool"
        }
      ],
      "payable": true,
      "stateMutability": "payable",
      "type": "function"
    },
    {
      "constant": true,
      "inputs": [
        {
          "internalType": "address",
          "name": "addr",
          "type": "address"
        }
      ],
      "name": "getContribution",
      "outputs": [
        {
          "internalType": "bool",
          "name": "",
          "type": "bool"
        }
      ],
      "payable": false,
      "stateMutability": "view",
      "type": "function"
    },
    {
      "constant": true,
      "inputs": [],
      "name": "getNumberOfContributions",
      "outputs": [
        {
          "internalType": "uint256",
          "name": "",
          "type": "uint256"
        }
      ],
      "payable": false,
      "stateMutability": "view",
      "type": "function"
    }
  ],
  "bytecode": "0x60806040523480156200001157600080fd5b50604051620013ce380380620013ce833981810160405260608110156200003757600080fd5b81019080805160405193929190846401000000008211156200005857600080fd5b838201915060208201858111156200006f57600080fd5b82518660018202830111640100000000821117156200008d57600080fd5b8083526020830192505050908051906020019080838360005b83811015620000c3578082015181840152602081019050620000a6565b50505050905090810190601f168015620000f15780820380516001836020036101000a031916815260200191505b50604052602001805190602001909291908051906020019092919050505082600090805190602001906200012792919062000181565b5080600260006101000a81548173ffffffffffffffffffffffffffffffffffffffff021916908373ffffffffffffffffffffffffffffffffffffffff16021790555081600481905550600060058190555050505062000230565b828054600181600116156101000203166002900490600052602060002090601f016020900481019282601f10620001c457805160ff1916838001178555620001f5565b82800160010185558215620001f5579182015b82811115620001f4578251825591602001919060010190620001d7565b5b50905062000204919062000208565b5090565b6200022d91905b80821115620002295760008160009055506001016200020f565b5090565b90565b61118e80620002406000396000f3fe60806040526004361061009c5760003560e01c8063348723891161006457806334872389146102fc5780634c7b81d3146103f95780635c43217b146104245780638f84aa09146104f7578063937e09b11461054e578063d4c3eea0146105795761009c565b806302575efd146100a157806306fdde03146100cf5780631cee07001461015f57806321eff7fc1461024d57806329407f87146102b6575b600080fd5b6100cd600480360360208110156100b757600080fd5b81019080803590602001909291905050506105a4565b005b3480156100db57600080fd5b506100e46107b3565b6040518080602001828103825283818151815260200191508051906020019080838360005b83811015610124578082015181840152602081019050610109565b50505050905090810190601f1680156101515780820380516001836020036101000a031916815260200191505b509250505060405180910390f35b34801561016b57600080fd5b506101986004803603602081101561018257600080fd5b8101908080359060200190929190505050610851565b604051808481526020018373ffffffffffffffffffffffffffffffffffffffff1673ffffffffffffffffffffffffffffffffffffffff16815260200180602001828103825283818151815260200191508051906020019080838360005b838110156102105780820151818401526020810190506101f5565b50505050905090810190601f16801561023d5780820380516001836020036101000a031916815260200191505b5094505050505060405180910390f35b34801561025957600080fd5b5061029c6004803603602081101561027057600080fd5b81019080803573ffffffffffffffffffffffffffffffffffffffff169060200190929190505050610940565b604051808215151515815260200191505060405180910390f35b6102e2600480360360208110156102cc57600080fd5b8101908080359060200190929190505050610996565b604051808215151515815260200191505060405180910390f35b6103df6004803603606081101561031257600080fd5b8101908080359060200190929190803573ffffffffffffffffffffffffffffffffffffffff1690602001909291908035906020019064010000000081111561035957600080fd5b82018360208201111561036b57600080fd5b8035906020019184600183028401116401000000008311171561038d57600080fd5b91908080601f016020809104026020016040519081016040528093929190818152602001838380828437600081840152601f19601f820116905080830192505050505050509192919290505050610c12565b604051808215151515815260200191505060405180910390f35b34801561040557600080fd5b5061040e610e3e565b6040518082815260200191505060405180910390f35b6104dd6004803603602081101561043a57600080fd5b810190808035906020019064010000000081111561045757600080fd5b82018360208201111561046957600080fd5b8035906020019184600183028401116401000000008311171561048b57600080fd5b91908080601f016020809104026020016040519081016040528093929190818152602001838380828437600081840152601f19601f820116905080830192505050505050509192919290505050610e4b565b604051808215151515815260200191505060405180910390f35b34801561050357600080fd5b5061050c611003565b604051808273ffffffffffffffffffffffffffffffffffffffff1673ffffffffffffffffffffffffffffffffffffffff16815260200191505060405180910390f35b34801561055a57600080fd5b50610563611029565b6040518082815260200191505060405180910390f35b34801561058557600080fd5b5061058e61102f565b6040518082815260200191505060405180910390f35b6004548110156105b357600080fd5b600160405180606001604052808381526020013373ffffffffffffffffffffffffffffffffffffffff16815260200160405180602001604052806000815250815250908060018154018082558091505090600182039060005260206000209060030201600090919290919091506000820151816000015560208201518160010160006101000a81548173ffffffffffffffffffffffffffffffffffffffff021916908373ffffffffffffffffffffffffffffffffffffffff160217905550604082015181600201908051906020019061068d929190611035565b505050506001600360003373ffffffffffffffffffffffffffffffffffffffff1673ffffffffffffffffffffffffffffffffffffffff16815260200190815260200160002060006101000a81548160ff021916908315150217905550806005600082825401925050819055503373ffffffffffffffffffffffffffffffffffffffff167f4ea40d5e8c76929deef87d860acc5d87d329935ea89d5b6b84f503e934de0b71826040518082815260200191505060405180910390a2600260009054906101000a900473ffffffffffffffffffffffffffffffffffffffff1673ffffffffffffffffffffffffffffffffffffffff166108fc349081150290604051600060405180830381858888f193505050501580156107af573d6000803e3d6000fd5b5050565b60008054600181600116156101000203166002900480601f0160208091040260200160405190810160405280929190818152602001828054600181600116156101000203166002900480156108495780601f1061081e57610100808354040283529160200191610849565b820191906000526020600020905b81548152906001019060200180831161082c57829003601f168201915b505050505081565b6001818154811061085e57fe5b90600052602060002090600302016000915090508060000154908060010160009054906101000a900473ffffffffffffffffffffffffffffffffffffffff1690806002018054600181600116156101000203166002900480601f0160208091040260200160405190810160405280929190818152602001828054600181600116156101000203166002900480156109365780601f1061090b57610100808354040283529160200191610936565b820191906000526020600020905b81548152906001019060200180831161091957829003601f168201915b5050505050905083565b6000600360008373ffffffffffffffffffffffffffffffffffffffff1673ffffffffffffffffffffffffffffffffffffffff16815260200190815260200160002060009054906101000a900460ff169050919050565b60006109a06110b5565b600183815481106109ad57fe5b9060005260206000209060030201604051806060016040529081600082015481526020016001820160009054906101000a900473ffffffffffffffffffffffffffffffffffffffff1673ffffffffffffffffffffffffffffffffffffffff1673ffffffffffffffffffffffffffffffffffffffff168152602001600282018054600181600116156101000203166002900480601f016020809104026020016040519081016040528092919081815260200182805460018160011615610100020316600290048015610abf5780601f10610a9457610100808354040283529160200191610abf565b820191906000526020600020905b815481529060010190602001808311610aa257829003601f168201915b50505050508152505090506000816020015173ffffffffffffffffffffffffffffffffffffffff16826000015160405180600001905060006040518083038185875af1925050503d8060008114610b32576040519150601f19603f3d011682016040523d82523d6000602084013e610b37565b606091505b5050905060018481548110610b4857fe5b90600052602060002090600302016000808201600090556001820160006101000a81549073ffffffffffffffffffffffffffffffffffffffff0219169055600282016000610b9691906110ec565b5050600060036000846020015173ffffffffffffffffffffffffffffffffffffffff1673ffffffffffffffffffffffffffffffffffffffff16815260200190815260200160002060006101000a81548160ff02191690831515021790555081600001516005600082825403925050819055508092505050919050565b6000600454841015610c2357600080fd5b600160405180606001604052808681526020018573ffffffffffffffffffffffffffffffffffffffff16815260200184815250908060018154018082558091505090600182039060005260206000209060030201600090919290919091506000820151816000015560208201518160010160006101000a81548173ffffffffffffffffffffffffffffffffffffffff021916908373ffffffffffffffffffffffffffffffffffffffff1602179055506040820151816002019080519060200190610cee929190611035565b505050506001600360008573ffffffffffffffffffffffffffffffffffffffff1673ffffffffffffffffffffffffffffffffffffffff16815260200190815260200160002060006101000a81548160ff021916908315150217905550836005600082825401925050819055508273ffffffffffffffffffffffffffffffffffffffff167f4ea40d5e8c76929deef87d860acc5d87d329935ea89d5b6b84f503e934de0b71856040518082815260200191505060405180910390a26000600260009054906101000a900473ffffffffffffffffffffffffffffffffffffffff1673ffffffffffffffffffffffffffffffffffffffff168560405180600001905060006040518083038185875af1925050503d8060008114610e2a576040519150601f19603f3d011682016040523d82523d6000602084013e610e2f565b606091505b50509050809150509392505050565b6000600180549050905090565b6000600454341015610e5c57600080fd5b610e646110b5565b60405180606001604052803481526020013373ffffffffffffffffffffffffffffffffffffffff168152602001848152509050600181908060018154018082558091505090600182039060005260206000209060030201600090919290919091506000820151816000015560208201518160010160006101000a81548173ffffffffffffffffffffffffffffffffffffffff021916908373ffffffffffffffffffffffffffffffffffffffff1602179055506040820151816002019080519060200190610f32929190611035565b505050506001600360003373ffffffffffffffffffffffffffffffffffffffff1673ffffffffffffffffffffffffffffffffffffffff16815260200190815260200160002060006101000a81548160ff021916908315150217905550346005600082825401925050819055506000600260009054906101000a900473ffffffffffffffffffffffffffffffffffffffff1673ffffffffffffffffffffffffffffffffffffffff166108fc349081150290604051600060405180830381858888f1935050505090508092505050919050565b600260009054906101000a900473ffffffffffffffffffffffffffffffffffffffff1681565b60045481565b60055481565b828054600181600116156101000203166002900490600052602060002090601f016020900481019282601f1061107657805160ff19168380011785556110a4565b828001600101855582156110a4579182015b828111156110a3578251825591602001919060010190611088565b5b5090506110b19190611134565b5090565b604051806060016040528060008152602001600073ffffffffffffffffffffffffffffffffffffffff168152602001606081525090565b50805460018160011615610100020316600290046000825580601f106111125750611131565b601f0160209004906000526020600020908101906111309190611134565b5b50565b61115691905b8082111561115257600081600090555060010161113a565b5090565b9056fea265627a7a72315820c148628c5b166cf305977bd2094784b1e3b10cb0a12c5b69f9c07f943990e3fc64736f6c63430005100032",
  "source": "pragma solidity >=0.4.21 <0.8.0;\n\ncontract CrowdfundingCampaign {\n    \n//    struct Withdrawal {\n//        string description;\n//        uint value;\n//        address recipient;\n//        bool complete;\n//        uint approvalCount;\n//        mapping(address => bool) approvals;\n//    }\n//    Withdrawal [] public withdrawals;\n\n    string public name;\n\n    struct Contribution {\n        uint value;\n        address contributor;\n        string description;\n    }\n\n    Contribution [] public contributions;\n    address payable public ownerAddress;\n    mapping(address => bool) contributors;\n    uint public minimumContribution;\n    uint public totalValue;\n\n    constructor(string memory campaignName, uint minimum, address payable creator) public {\n        name = campaignName;\n        ownerAddress = creator;\n        minimumContribution = minimum;\n        totalValue = 0;\n    }\n\n    event contributeMoney(address indexed _from, uint256 _value);\n    \n    function contribute(string memory description) public payable returns(bool) {\n        require(msg.value >= minimumContribution);\n\n        Contribution memory newContribution = Contribution({\n            description: description,\n            value: msg.value,\n            contributor: msg.sender\n        });\n        contributions.push(newContribution);\n\n        contributors[msg.sender] = true;\n        totalValue += msg.value;\n        bool success = ownerAddress.send(msg.value);\n        return success;\n    }\n\n    function contribute2(uint money) public payable {\n        require(money >= minimumContribution);\n\n        contributions.push(Contribution({\n            description: \"\",\n            value: money,\n            contributor: msg.sender\n        }));\n\n        contributors[msg.sender] = true;\n        totalValue += money;\n        emit contributeMoney(msg.sender, money);\n        ownerAddress.transfer(msg.value);\n    }\n\n    function contribute3(uint money, address toAddress, string memory description) public payable returns(bool) {\n        require(money >= minimumContribution);\n\n        contributions.push(Contribution({\n            description: description,\n            value: money,\n            contributor: toAddress\n        }));\n\n        contributors[toAddress] = true;\n        totalValue += money;\n        emit contributeMoney(toAddress, money);\n        (bool success, ) =  ownerAddress.call.value(money)(\"\");\n        return success;\n    }\n\n    function retrieveContribution(uint index) public payable returns(bool) {\n        Contribution memory contribution = contributions[index];\n        (bool success, ) = contribution.contributor.call.value(contribution.value)(\"\");\n\n        delete contributions[index];\n        contributors[contribution.contributor] = false;\n        totalValue -= contribution.value;\n\n        return success;\n    }\n\n    function getContribution(address addr) public view returns(bool) {\n        return contributors[addr];\n    }\n\n    function getNumberOfContributions() public view returns(uint) {\n        return contributions.length;\n    }\n\n\n    modifier onlyOwner() {\n        require(msg.sender == ownerAddress);\n        _;\n    }\n    \n    modifier onlyContributor() {\n        require(contributors[msg.sender]);\n        _;\n    }\n    \n//    function createWithdrawal (string description, uint value, address recipient) public onlyOwner returns(uint) {\n//        Withdrawal memory newWithdraw = Withdrawal({\n//            description: description,\n//            value: value,\n//            recipient: recipient,\n//            complete: false,\n//            approvalCount: 0\n//        });\n//        withdrawals.push(newWithdraw);\n//        return withdrawals.length - 1;\n//    }\n//\n//    function approveWithdrawal (uint index) public onlyContributor {\n//        Withdrawal storage withdrawal = withdrawals[index];\n//\n//        require(!withdrawal.approvals[msg.sender]);\n//\n//        withdrawal.approvals[msg.sender] = true;\n//        withdrawal.approvalCount++;\n//    }\n//\n//    function finalizeWithdrawal (uint index) public onlyOwner {\n//        Withdrawal storage withdrawal = withdrawals[index];\n//\n//        require(withdrawal.approvalCount > (contributorsCount / 2));\n//        require(!withdrawal.complete);\n//\n//        withdrawal.recipient.transfer(withdrawal.value);\n//        totalValue -= withdrawal.value;\n//        withdrawal.complete = true;\n//    }\n}",
  "sourcePath": "/home/tomas/FEI/DP-I/DP-I-project/contracts/CrowdfundingCampaign.sol",
  "compiler": {
    "name": "solc",
    "version": "0.5.16+commit.9c3226ce.Emscripten.clang"
  },
  "schemaVersion": "3.4.4",
  "updatedAt": "2022-01-21T14:11:51.256Z",
  "networkType": "ethereum",
  "devdoc": {
    "methods": {}
  },
  "userdoc": {
    "methods": {}
  }
}