{
  "contractName": "CrowdfundingCampaign",
  "abi": [
    {
      "inputs": [
        {
          "internalType": "string",
          "name": "name",
          "type": "string"
        },
        {
          "internalType": "uint256",
          "name": "goal",
          "type": "uint256"
        },
        {
          "internalType": "address payable",
          "name": "creator",
          "type": "address"
        }
      ],
      "payable": false,
      "stateMutability": "nonpayable",
      "type": "constructor"
    },
    {
      "anonymous": false,
      "inputs": [
        {
          "indexed": false,
          "internalType": "address",
          "name": "add",
          "type": "address"
        }
      ],
      "name": "logAddress",
      "type": "event"
    },
    {
      "anonymous": false,
      "inputs": [
        {
          "indexed": false,
          "internalType": "uint256",
          "name": "balance",
          "type": "uint256"
        }
      ],
      "name": "logContractBalance",
      "type": "event"
    },
    {
      "anonymous": false,
      "inputs": [
        {
          "indexed": true,
          "internalType": "address",
          "name": "_from",
          "type": "address"
        },
        {
          "indexed": true,
          "internalType": "address",
          "name": "_to",
          "type": "address"
        },
        {
          "indexed": false,
          "internalType": "uint256",
          "name": "_value",
          "type": "uint256"
        }
      ],
      "name": "logContributeMoney",
      "type": "event"
    },
    {
      "anonymous": false,
      "inputs": [
        {
          "indexed": false,
          "internalType": "uint256",
          "name": "length",
          "type": "uint256"
        }
      ],
      "name": "logContributions2length",
      "type": "event"
    },
    {
      "anonymous": false,
      "inputs": [
        {
          "indexed": true,
          "internalType": "address",
          "name": "_from",
          "type": "address"
        },
        {
          "indexed": true,
          "internalType": "address",
          "name": "_to",
          "type": "address"
        },
        {
          "indexed": false,
          "internalType": "uint256",
          "name": "_value",
          "type": "uint256"
        }
      ],
      "name": "logReturnContribution",
      "type": "event"
    },
    {
      "anonymous": false,
      "inputs": [
        {
          "indexed": false,
          "internalType": "bool",
          "name": "success",
          "type": "bool"
        },
        {
          "indexed": false,
          "internalType": "address payable",
          "name": "_to",
          "type": "address"
        }
      ],
      "name": "logWithdrawalTransferSuccess",
      "type": "event"
    },
    {
      "payable": true,
      "stateMutability": "payable",
      "type": "fallback"
    },
    {
      "constant": true,
      "inputs": [
        {
          "internalType": "address",
          "name": "",
          "type": "address"
        }
      ],
      "name": "balances",
      "outputs": [
        {
          "internalType": "uint256",
          "name": "",
          "type": "uint256"
        }
      ],
      "payable": false,
      "stateMutability": "view",
      "type": "function"
    },
    {
      "constant": true,
      "inputs": [],
      "name": "campaignName",
      "outputs": [
        {
          "internalType": "string",
          "name": "",
          "type": "string"
        }
      ],
      "payable": false,
      "stateMutability": "view",
      "type": "function"
    },
    {
      "constant": true,
      "inputs": [],
      "name": "campaignStatus",
      "outputs": [
        {
          "internalType": "string",
          "name": "",
          "type": "string"
        }
      ],
      "payable": false,
      "stateMutability": "view",
      "type": "function"
    },
    {
      "constant": true,
      "inputs": [
        {
          "internalType": "uint256",
          "name": "",
          "type": "uint256"
        }
      ],
      "name": "contributions",
      "outputs": [
        {
          "internalType": "uint256",
          "name": "value",
          "type": "uint256"
        },
        {
          "internalType": "address payable",
          "name": "contributor",
          "type": "address"
        },
        {
          "internalType": "string",
          "name": "description",
          "type": "string"
        }
      ],
      "payable": false,
      "stateMutability": "view",
      "type": "function"
    },
    {
      "constant": true,
      "inputs": [
        {
          "internalType": "address",
          "name": "",
          "type": "address"
        },
        {
          "internalType": "uint256",
          "name": "",
          "type": "uint256"
        }
      ],
      "name": "contributions2",
      "outputs": [
        {
          "internalType": "uint256",
          "name": "value",
          "type": "uint256"
        },
        {
          "internalType": "uint256",
          "name": "index",
          "type": "uint256"
        },
        {
          "internalType": "string",
          "name": "description",
          "type": "string"
        }
      ],
      "payable": false,
      "stateMutability": "view",
      "type": "function"
    },
    {
      "constant": true,
      "inputs": [],
      "name": "goalValue",
      "outputs": [
        {
          "internalType": "uint256",
          "name": "",
          "type": "uint256"
        }
      ],
      "payable": false,
      "stateMutability": "view",
      "type": "function"
    },
    {
      "constant": true,
      "inputs": [],
      "name": "ownerAddress",
      "outputs": [
        {
          "internalType": "address payable",
          "name": "",
          "type": "address"
        }
      ],
      "payable": false,
      "stateMutability": "view",
      "type": "function"
    },
    {
      "constant": true,
      "inputs": [],
      "name": "totalValue",
      "outputs": [
        {
          "internalType": "uint256",
          "name": "",
          "type": "uint256"
        }
      ],
      "payable": false,
      "stateMutability": "view",
      "type": "function"
    },
    {
      "constant": false,
      "inputs": [
        {
          "internalType": "string",
          "name": "description",
          "type": "string"
        }
      ],
      "name": "contribute",
      "outputs": [
        {
          "internalType": "bool",
          "name": "",
          "type": "bool"
        }
      ],
      "payable": true,
      "stateMutability": "payable",
      "type": "function"
    },
    {
      "constant": false,
      "inputs": [
        {
          "internalType": "string",
          "name": "description",
          "type": "string"
        }
      ],
      "name": "contributeCampaign",
      "outputs": [
        {
          "internalType": "bool",
          "name": "",
          "type": "bool"
        }
      ],
      "payable": true,
      "stateMutability": "payable",
      "type": "function"
    },
    {
      "constant": false,
      "inputs": [
        {
          "internalType": "uint256",
          "name": "index",
          "type": "uint256"
        }
      ],
      "name": "withdrawContribution",
      "outputs": [
        {
          "internalType": "bool",
          "name": "",
          "type": "bool"
        }
      ],
      "payable": true,
      "stateMutability": "payable",
      "type": "function"
    },
    {
      "constant": false,
      "inputs": [
        {
          "internalType": "uint256",
          "name": "index",
          "type": "uint256"
        }
      ],
      "name": "withdrawContribution2",
      "outputs": [
        {
          "internalType": "bool",
          "name": "",
          "type": "bool"
        }
      ],
      "payable": true,
      "stateMutability": "payable",
      "type": "function"
    },
    {
      "constant": false,
      "inputs": [],
      "name": "cancelCampaign",
      "outputs": [],
      "payable": false,
      "stateMutability": "nonpayable",
      "type": "function"
    },
    {
      "constant": false,
      "inputs": [],
      "name": "finishCampaign",
      "outputs": [
        {
          "internalType": "bool",
          "name": "",
          "type": "bool"
        }
      ],
      "payable": false,
      "stateMutability": "nonpayable",
      "type": "function"
    },
    {
      "constant": true,
      "inputs": [],
      "name": "getNumberOfContributions",
      "outputs": [
        {
          "internalType": "uint256",
          "name": "",
          "type": "uint256"
        }
      ],
      "payable": false,
      "stateMutability": "view",
      "type": "function"
    },
    {
      "constant": true,
      "inputs": [
        {
          "internalType": "address",
          "name": "contributorAddress",
          "type": "address"
        }
      ],
      "name": "getNumberOfAddressContribution",
      "outputs": [
        {
          "internalType": "uint256",
          "name": "",
          "type": "uint256"
        }
      ],
      "payable": false,
      "stateMutability": "view",
      "type": "function"
    },
    {
      "constant": false,
      "inputs": [],
      "name": "activateCampaign",
      "outputs": [],
      "payable": false,
      "stateMutability": "nonpayable",
      "type": "function"
    }
  ],
  "bytecode": "0x60806040526040518060400160405280600981526020017f6e6f6e616374697665000000000000000000000000000000000000000000000081525060019080519060200190620000519291906200021d565b503480156200005f57600080fd5b506040516200210538038062002105833981810160405260608110156200008557600080fd5b8101908080516040519392919084640100000000821115620000a657600080fd5b83820191506020820185811115620000bd57600080fd5b8251866001820283011164010000000082111715620000db57600080fd5b8083526020830192505050908051906020019080838360005b8381101562000111578082015181840152602081019050620000f4565b50505050905090810190601f1680156200013f5780820380516001836020036101000a031916815260200191505b5060405260200180519060200190929190805190602001909291905050508260009080519060200190620001759291906200021d565b508160038190555080600660006101000a81548173ffffffffffffffffffffffffffffffffffffffff021916908373ffffffffffffffffffffffffffffffffffffffff16021790555060006002819055506040518060400160405280600681526020017f616374697665000000000000000000000000000000000000000000000000000081525060019080519060200190620002139291906200021d565b50505050620002cc565b828054600181600116156101000203166002900490600052602060002090601f016020900481019282601f106200026057805160ff191683800117855562000291565b8280016001018555821562000291579182015b828111156200029057825182559160200191906001019062000273565b5b509050620002a09190620002a4565b5090565b620002c991905b80821115620002c5576000816000905550600101620002ab565b5090565b90565b611e2980620002dc6000396000f3fe6080604052600436106100fe5760003560e01c80638237fc5111610095578063cb65fdf411610064578063cb65fdf414610640578063d25090ff14610722578063d4c3eea014610768578063ea12e9b614610793578063f3a4721a146107aa576100fe565b80638237fc51146104d057806388e3bbda146105a35780638f84aa09146105d2578063980e784414610629576100fe565b80634c7b81d3116100d15780634c7b81d314610361578063583a135d1461038c5780635c43217b146103b7578063656442b91461048a576100fe565b80630724fda9146101195780631cee0700146101a957806327e235e3146102975780632e5bb4ff146102fc575b6101166040518060200160405280600081525061083a565b50005b34801561012557600080fd5b5061012e610c19565b6040518080602001828103825283818151815260200191508051906020019080838360005b8381101561016e578082015181840152602081019050610153565b50505050905090810190601f16801561019b5780820380516001836020036101000a031916815260200191505b509250505060405180910390f35b3480156101b557600080fd5b506101e2600480360360208110156101cc57600080fd5b8101908080359060200190929190505050610cb7565b604051808481526020018373ffffffffffffffffffffffffffffffffffffffff1673ffffffffffffffffffffffffffffffffffffffff16815260200180602001828103825283818151815260200191508051906020019080838360005b8381101561025a57808201518184015260208101905061023f565b50505050905090810190601f1680156102875780820380516001836020036101000a031916815260200191505b5094505050505060405180910390f35b3480156102a357600080fd5b506102e6600480360360208110156102ba57600080fd5b81019080803573ffffffffffffffffffffffffffffffffffffffff169060200190929190505050610da6565b6040518082815260200191505060405180910390f35b34801561030857600080fd5b5061034b6004803603602081101561031f57600080fd5b81019080803573ffffffffffffffffffffffffffffffffffffffff169060200190929190505050610dbe565b6040518082815260200191505060405180910390f35b34801561036d57600080fd5b50610376610e0a565b6040518082815260200191505060405180910390f35b34801561039857600080fd5b506103a1610e17565b6040518082815260200191505060405180910390f35b610470600480360360208110156103cd57600080fd5b81019080803590602001906401000000008111156103ea57600080fd5b8201836020820111156103fc57600080fd5b8035906020019184600183028401116401000000008311171561041e57600080fd5b91908080601f016020809104026020016040519081016040528093929190818152602001838380828437600081840152601f19601f820116905080830192505050505050509192919290505050610e1d565b604051808215151515815260200191505060405180910390f35b6104b6600480360360208110156104a057600080fd5b8101908080359060200190929190505050610ffc565b604051808215151515815260200191505060405180910390f35b610589600480360360208110156104e657600080fd5b810190808035906020019064010000000081111561050357600080fd5b82018360208201111561051557600080fd5b8035906020019184600183028401116401000000008311171561053757600080fd5b91908080601f016020809104026020016040519081016040528093929190818152602001838380828437600081840152601f19601f82011690508083019250505050505050919291929050505061083a565b604051808215151515815260200191505060405180910390f35b3480156105af57600080fd5b506105b86112b8565b604051808215151515815260200191505060405180910390f35b3480156105de57600080fd5b506105e76114f3565b604051808273ffffffffffffffffffffffffffffffffffffffff1673ffffffffffffffffffffffffffffffffffffffff16815260200191505060405180910390f35b34801561063557600080fd5b5061063e611519565b005b34801561064c57600080fd5b506106996004803603604081101561066357600080fd5b81019080803573ffffffffffffffffffffffffffffffffffffffff169060200190929190803590602001909291905050506116de565b6040518084815260200183815260200180602001828103825283818151815260200191508051906020019080838360005b838110156106e55780820151818401526020810190506106ca565b50505050905090810190601f1680156107125780820380516001836020036101000a031916815260200191505b5094505050505060405180910390f35b61074e6004803603602081101561073857600080fd5b81019080803590602001909291905050506117ba565b604051808215151515815260200191505060405180910390f35b34801561077457600080fd5b5061077d611a8f565b6040518082815260200191505060405180910390f35b34801561079f57600080fd5b506107a8611a95565b005b3480156107b657600080fd5b506107bf611b91565b6040518080602001828103825283818151815260200191508051906020019080838360005b838110156107ff5780820151818401526020810190506107e4565b50505050905090810190601f16801561082c5780820380516001836020036101000a031916815260200191505b509250505060405180910390f35b60006040518060400160405280600681526020017f616374697665000000000000000000000000000000000000000000000000000081525080519060200120600160405180828054600181600116156101000203166002900480156108d65780601f106108b45761010080835404028352918201916108d6565b820191906000526020600020905b8154815290600101906020018083116108c2575b505091505060405180910390201415610c0f576108f1611c2f565b60405180606001604052803481526020013373ffffffffffffffffffffffffffffffffffffffff168152602001848152509050600481908060018154018082558091505090600182039060005260206000209060030201600090919290919091506000820151816000015560208201518160010160006101000a81548173ffffffffffffffffffffffffffffffffffffffff021916908373ffffffffffffffffffffffffffffffffffffffff16021790555060408201518160020190805190602001906109bf929190611c66565b505050506109cb611ce6565b6040518060600160405280348152602001600560003373ffffffffffffffffffffffffffffffffffffffff1673ffffffffffffffffffffffffffffffffffffffff1681526020019081526020016000208054905081526020018581525090507fc93155c9fcf38b90fe2af24d44877f0511bc45c3f202276cb649ed21fe233002600560003373ffffffffffffffffffffffffffffffffffffffff1673ffffffffffffffffffffffffffffffffffffffff168152602001908152602001600020805490506040518082815260200191505060405180910390a1600560003373ffffffffffffffffffffffffffffffffffffffff1673ffffffffffffffffffffffffffffffffffffffff168152602001908152602001600020819080600181540180825580915050906001820390600052602060002090600302016000909192909190915060008201518160000155602082015181600101556040820151816002019080519060200190610b3e929190611c66565b5050505034600760003373ffffffffffffffffffffffffffffffffffffffff1673ffffffffffffffffffffffffffffffffffffffff16815260200190815260200160002060008282540192505081905550346002600082825401925050819055503073ffffffffffffffffffffffffffffffffffffffff163373ffffffffffffffffffffffffffffffffffffffff167fdcfd6735be7030902acaa6f041bf0e0137b04aedb3a8f5313c5985dce26fe7fa346040518082815260200191505060405180910390a3600192505050610c14565b600090505b919050565b60008054600181600116156101000203166002900480601f016020809104026020016040519081016040528092919081815260200182805460018160011615610100020316600290048015610caf5780601f10610c8457610100808354040283529160200191610caf565b820191906000526020600020905b815481529060010190602001808311610c9257829003601f168201915b505050505081565b60048181548110610cc457fe5b90600052602060002090600302016000915090508060000154908060010160009054906101000a900473ffffffffffffffffffffffffffffffffffffffff1690806002018054600181600116156101000203166002900480601f016020809104026020016040519081016040528092919081815260200182805460018160011615610100020316600290048015610d9c5780601f10610d7157610100808354040283529160200191610d9c565b820191906000526020600020905b815481529060010190602001808311610d7f57829003601f168201915b5050505050905083565b60076020528060005260406000206000915090505481565b6000600560008373ffffffffffffffffffffffffffffffffffffffff1673ffffffffffffffffffffffffffffffffffffffff168152602001908152602001600020805490509050919050565b6000600480549050905090565b60035481565b6000610e27611c2f565b60405180606001604052803481526020013373ffffffffffffffffffffffffffffffffffffffff168152602001848152509050600660009054906101000a900473ffffffffffffffffffffffffffffffffffffffff1673ffffffffffffffffffffffffffffffffffffffff163373ffffffffffffffffffffffffffffffffffffffff167fdcfd6735be7030902acaa6f041bf0e0137b04aedb3a8f5313c5985dce26fe7fa346040518082815260200191505060405180910390a36000600660009054906101000a900473ffffffffffffffffffffffffffffffffffffffff1673ffffffffffffffffffffffffffffffffffffffff166108fc349081150290604051600060405180830381858888f1935050505090508015610ff257600482908060018154018082558091505090600182039060005260206000209060030201600090919290919091506000820151816000015560208201518160010160006101000a81548173ffffffffffffffffffffffffffffffffffffffff021916908373ffffffffffffffffffffffffffffffffffffffff1602179055506040820151816002019080519060200190610fdd929190611c66565b50505050346002600082825401925050819055505b8092505050919050565b6000611006611ce6565b600560003373ffffffffffffffffffffffffffffffffffffffff1673ffffffffffffffffffffffffffffffffffffffff168152602001908152602001600020838154811061105057fe5b90600052602060002090600302016040518060600160405290816000820154815260200160018201548152602001600282018054600181600116156101000203166002900480601f0160208091040260200160405190810160405280929190818152602001828054600181600116156101000203166002900480156111165780601f106110eb57610100808354040283529160200191611116565b820191906000526020600020905b8154815290600101906020018083116110f957829003601f168201915b505050505081525050905060003373ffffffffffffffffffffffffffffffffffffffff166108fc83600001519081150290604051600060405180830381858888f1935050505090507f54e33288800614b818e34d475e01cc8fbc4bb0312a0eda7c6a50da129a12f558813360405180831515151581526020018273ffffffffffffffffffffffffffffffffffffffff1673ffffffffffffffffffffffffffffffffffffffff1681526020019250505060405180910390a180156112ae573373ffffffffffffffffffffffffffffffffffffffff163073ffffffffffffffffffffffffffffffffffffffff167f13c5f279f95e211e35647815ce24db5bffac028d5b9800eb778daa6b7f561ed784600001516040518082815260200191505060405180910390a36004848154811061124957fe5b90600052602060002090600302016000808201600090556001820160006101000a81549073ffffffffffffffffffffffffffffffffffffffff02191690556002820160006112979190611d07565b505081600001516002600082825403925050819055505b8092505050919050565b6000804790507fd4a125efef1c3fca9f2d63ea257a143623b80df1843e34bf3bb8c3021739faf8816040518082815260200191505060405180910390a16040518060400160405280600681526020017f6163746976650000000000000000000000000000000000000000000000000000815250805190602001206001604051808280546001816001161561010002031660029004801561138f5780601f1061136d57610100808354040283529182019161138f565b820191906000526020600020905b81548152906001019060200180831161137b575b505091505060405180910390201480156113ab57506003544710155b156114ea5760003373ffffffffffffffffffffffffffffffffffffffff166108fc6002549081150290604051600060405180830381858888f19350505050905080156114e8576040518060400160405280600881526020017f66696e69736865640000000000000000000000000000000000000000000000008152506001908051906020019061143c929190611d4f565b503373ffffffffffffffffffffffffffffffffffffffff163073ffffffffffffffffffffffffffffffffffffffff167fdcfd6735be7030902acaa6f041bf0e0137b04aedb3a8f5313c5985dce26fe7fa6002546040518082815260200191505060405180910390a34791507fd4a125efef1c3fca9f2d63ea257a143623b80df1843e34bf3bb8c3021739faf8826040518082815260200191505060405180910390a180925050506114f0565b505b60009150505b90565b600660009054906101000a900473ffffffffffffffffffffffffffffffffffffffff1681565b6040518060400160405280600881526020017f63616e63656c656400000000000000000000000000000000000000000000000081525060019080519060200190611564929190611d4f565b5060008090505b6004805490508110156116db5760004790507fd4a125efef1c3fca9f2d63ea257a143623b80df1843e34bf3bb8c3021739faf8816040518082815260200191505060405180910390a16000600483815481106115c357fe5b9060005260206000209060030201905060008160010160009054906101000a900473ffffffffffffffffffffffffffffffffffffffff1673ffffffffffffffffffffffffffffffffffffffff166108fc83600001549081150290604051600060405180830381858888f1935050505090508160010160009054906101000a900473ffffffffffffffffffffffffffffffffffffffff1673ffffffffffffffffffffffffffffffffffffffff163073ffffffffffffffffffffffffffffffffffffffff167f13c5f279f95e211e35647815ce24db5bffac028d5b9800eb778daa6b7f561ed784600001546040518082815260200191505060405180910390a3806116cb57600080fd5b505050808060010191505061156b565b50565b600560205281600052604060002081815481106116f757fe5b906000526020600020906003020160009150915050806000015490806001015490806002018054600181600116156101000203166002900480601f0160208091040260200160405190810160405280929190818152602001828054600181600116156101000203166002900480156117b05780601f10611785576101008083540402835291602001916117b0565b820191906000526020600020905b81548152906001019060200180831161179357829003601f168201915b5050505050905083565b60006117c4611c2f565b600483815481106117d157fe5b9060005260206000209060030201604051806060016040529081600082015481526020016001820160009054906101000a900473ffffffffffffffffffffffffffffffffffffffff1673ffffffffffffffffffffffffffffffffffffffff1673ffffffffffffffffffffffffffffffffffffffff168152602001600282018054600181600116156101000203166002900480601f0160208091040260200160405190810160405280929190818152602001828054600181600116156101000203166002900480156118e35780601f106118b8576101008083540402835291602001916118e3565b820191906000526020600020905b8154815290600101906020018083116118c657829003601f168201915b505050505081525050905060008160200151905060008173ffffffffffffffffffffffffffffffffffffffff166108fc84600001519081150290604051600060405180830381858888f1935050505090507f54e33288800614b818e34d475e01cc8fbc4bb0312a0eda7c6a50da129a12f558818360405180831515151581526020018273ffffffffffffffffffffffffffffffffffffffff1673ffffffffffffffffffffffffffffffffffffffff1681526020019250505060405180910390a18015611a84578173ffffffffffffffffffffffffffffffffffffffff163073ffffffffffffffffffffffffffffffffffffffff167f13c5f279f95e211e35647815ce24db5bffac028d5b9800eb778daa6b7f561ed785600001516040518082815260200191505060405180910390a360048581548110611a1f57fe5b90600052602060002090600302016000808201600090556001820160006101000a81549073ffffffffffffffffffffffffffffffffffffffff0219169055600282016000611a6d9190611d07565b505082600001516002600082825403925050819055505b809350505050919050565b60025481565b6040518060400160405280600881526020017f63616e63656c65640000000000000000000000000000000000000000000000008152508051906020012060016040518082805460018160011615610100020316600290048015611b2f5780601f10611b0d576101008083540402835291820191611b2f565b820191906000526020600020905b815481529060010190602001808311611b1b575b505091505060405180910390201415611b8f576040518060400160405280600681526020017f616374697665000000000000000000000000000000000000000000000000000081525060019080519060200190611b8d929190611d4f565b505b565b60018054600181600116156101000203166002900480601f016020809104026020016040519081016040528092919081815260200182805460018160011615610100020316600290048015611c275780601f10611bfc57610100808354040283529160200191611c27565b820191906000526020600020905b815481529060010190602001808311611c0a57829003601f168201915b505050505081565b604051806060016040528060008152602001600073ffffffffffffffffffffffffffffffffffffffff168152602001606081525090565b828054600181600116156101000203166002900490600052602060002090601f016020900481019282601f10611ca757805160ff1916838001178555611cd5565b82800160010185558215611cd5579182015b82811115611cd4578251825591602001919060010190611cb9565b5b509050611ce29190611dcf565b5090565b60405180606001604052806000815260200160008152602001606081525090565b50805460018160011615610100020316600290046000825580601f10611d2d5750611d4c565b601f016020900490600052602060002090810190611d4b9190611dcf565b5b50565b828054600181600116156101000203166002900490600052602060002090601f016020900481019282601f10611d9057805160ff1916838001178555611dbe565b82800160010185558215611dbe579182015b82811115611dbd578251825591602001919060010190611da2565b5b509050611dcb9190611dcf565b5090565b611df191905b80821115611ded576000816000905550600101611dd5565b5090565b9056fea265627a7a72315820d3190137881fe63bd5756ec614d8cf07dd74e5a85fcec61b26e4e2c5e46e315264736f6c63430005100032",
  "source": "pragma solidity >=0.4.21 <0.8.0;\n\ncontract CrowdfundingCampaign {\n\n    string public campaignName;\n\n    struct Contribution {\n        uint value;\n        address payable contributor;\n        string description;\n    }\n\n    struct Contribution2 {\n        uint value;\n        uint index;\n        string description;\n    }\n\n    string public campaignStatus = \"nonactive\";\n    uint public totalValue;\n    uint public goalValue;\n    Contribution [] public contributions;\n    mapping (address => Contribution2[]) public contributions2;\n    address payable public ownerAddress;\n    mapping (address => uint256) public balances;\n\n    constructor(string memory name, uint goal, address payable creator) public {\n        campaignName = name ;\n        goalValue = goal;\n        ownerAddress = creator;\n        totalValue = 0;\n        campaignStatus = \"active\";\n    }\n\n    function () external payable {\n        contributeCampaign(\"\");\n    }\n\n    event logContributeMoney(address indexed _from,  address indexed _to, uint _value);\n    event logReturnContribution(address indexed _from, address indexed _to, uint _value);\n    event logWithdrawalTransferSuccess(bool success, address payable _to);\n    event logContractBalance(uint balance);\n    event logAddress(address add);\n    event logContributions2length(uint length);\n\n    function contribute(string memory description) public payable returns(bool) {\n        Contribution memory newContribution = Contribution({\n            description: description,\n            value: msg.value,\n            contributor: msg.sender\n        });\n        emit logContributeMoney(msg.sender, ownerAddress, msg.value);\n        bool success = ownerAddress.send(msg.value);\n        if (success) {\n            contributions.push(newContribution);\n            totalValue += msg.value;\n        }\n        return success;\n    }\n\n    function contributeCampaign(string memory description) public payable returns(bool) {\n        if (keccak256(bytes(campaignStatus)) == keccak256(bytes(\"active\"))) {\n            Contribution memory newContribution = Contribution({\n                description: description,\n                value: msg.value,\n                contributor: msg.sender\n            });\n            contributions.push(newContribution);\n\n            Contribution2 memory newContribution2 = Contribution2({\n                index: contributions2[msg.sender].length,\n                description: description,\n                value: msg.value\n            });\n            emit logContributions2length(contributions2[msg.sender].length);\n            contributions2[msg.sender].push(newContribution2);\n\n            balances[msg.sender] += msg.value;\n            totalValue += msg.value;\n            emit logContributeMoney(msg.sender, address(this), msg.value);\n            return true;\n        } else {\n            return false;\n        }\n    }\n\n    function withdrawContribution(uint index) public payable returns(bool) {\n        Contribution memory contribution = contributions[index];\n\n        address payable contributorAddress = contribution.contributor;\n\n        bool success = contributorAddress.send(contribution.value);\n        emit logWithdrawalTransferSuccess(success, contributorAddress);\n        if (success) {\n            emit logReturnContribution(address(this), contributorAddress, contribution.value);\n\n            delete contributions[index];\n            totalValue -= contribution.value;\n        }\n        return success;\n    }\n\n    function withdrawContribution2(uint index) public payable returns(bool) {\n        Contribution2 memory contribution = contributions2[msg.sender][index];\n\n        bool success = msg.sender.send(contribution.value);\n        emit logWithdrawalTransferSuccess(success, msg.sender);\n        if (success) {\n            emit logReturnContribution(address(this), msg.sender, contribution.value);\n\n            delete contributions[index];\n            totalValue -= contribution.value;\n        }\n        return success;\n    }\n\n    function cancelCampaign() public {\n        campaignStatus = \"canceled\";\n        for (uint i = 0; i < contributions.length; i++) {\n            uint contractBalance = address(this).balance;\n            emit logContractBalance(contractBalance);\n            Contribution storage contribution = contributions[i];\n            bool success = contribution.contributor.send(contribution.value);\n            emit logReturnContribution(address(this), contribution.contributor, contribution.value);\n            require(success);\n        }\n    }\n\n    function finishCampaign() public returns(bool) {\n        uint contractBalance = address(this).balance;\n        emit logContractBalance(contractBalance);\n        if (keccak256(bytes(campaignStatus)) == keccak256(bytes(\"active\")) && address(this).balance >= goalValue) {\n            bool success = msg.sender.send(totalValue);\n            if (success) {\n                campaignStatus = \"finished\";\n                emit logContributeMoney(address(this), msg.sender, totalValue);\n                contractBalance = address(this).balance;\n                emit logContractBalance(contractBalance);\n                return success;\n            }\n        }\n        return false;\n    }\n\n    function getNumberOfContributions() public view returns(uint) {\n        return contributions.length;\n    }\n\n    function getNumberOfAddressContribution(address contributorAddress) public view returns(uint) {\n        return contributions2[contributorAddress].length;\n    }\n\n    function activateCampaign() public {\n        if (keccak256(bytes(campaignStatus)) == keccak256(bytes(\"canceled\"))) {\n            campaignStatus = \"active\";\n        }\n    }\n}",
  "sourcePath": "/home/tomas/FEI/DP-I/DP-I-project/contracts/CrowdfundingCampaign.sol",
  "compiler": {
    "name": "solc",
    "version": "0.5.16+commit.9c3226ce.Emscripten.clang"
  },
  "schemaVersion": "3.4.4",
  "updatedAt": "2022-03-26T10:42:25.710Z",
  "networkType": "ethereum",
  "devdoc": {
    "methods": {}
  },
  "userdoc": {
    "methods": {}
  }
}