{
  "contractName": "CrowdfundingCampaign",
  "abi": [
    {
      "inputs": [
        {
          "internalType": "uint256",
          "name": "minimum",
          "type": "uint256"
        },
        {
          "internalType": "address payable",
          "name": "creator",
          "type": "address"
        }
      ],
      "payable": false,
      "stateMutability": "nonpayable",
      "type": "constructor"
    },
    {
      "anonymous": false,
      "inputs": [
        {
          "indexed": true,
          "internalType": "address",
          "name": "_from",
          "type": "address"
        },
        {
          "indexed": false,
          "internalType": "uint256",
          "name": "_value",
          "type": "uint256"
        }
      ],
      "name": "contributeMoney",
      "type": "event"
    },
    {
      "constant": true,
      "inputs": [
        {
          "internalType": "uint256",
          "name": "",
          "type": "uint256"
        }
      ],
      "name": "contributions",
      "outputs": [
        {
          "internalType": "uint256",
          "name": "value",
          "type": "uint256"
        },
        {
          "internalType": "address",
          "name": "contributor",
          "type": "address"
        },
        {
          "internalType": "string",
          "name": "description",
          "type": "string"
        }
      ],
      "payable": false,
      "stateMutability": "view",
      "type": "function"
    },
    {
      "constant": true,
      "inputs": [],
      "name": "contributorsCount",
      "outputs": [
        {
          "internalType": "uint256",
          "name": "",
          "type": "uint256"
        }
      ],
      "payable": false,
      "stateMutability": "view",
      "type": "function"
    },
    {
      "constant": true,
      "inputs": [],
      "name": "minimumContribution",
      "outputs": [
        {
          "internalType": "uint256",
          "name": "",
          "type": "uint256"
        }
      ],
      "payable": false,
      "stateMutability": "view",
      "type": "function"
    },
    {
      "constant": true,
      "inputs": [],
      "name": "owner",
      "outputs": [
        {
          "internalType": "address payable",
          "name": "",
          "type": "address"
        }
      ],
      "payable": false,
      "stateMutability": "view",
      "type": "function"
    },
    {
      "constant": true,
      "inputs": [],
      "name": "totalValue",
      "outputs": [
        {
          "internalType": "uint256",
          "name": "",
          "type": "uint256"
        }
      ],
      "payable": false,
      "stateMutability": "view",
      "type": "function"
    },
    {
      "constant": false,
      "inputs": [],
      "name": "contribute",
      "outputs": [
        {
          "internalType": "uint256",
          "name": "numberOfContributors",
          "type": "uint256"
        }
      ],
      "payable": true,
      "stateMutability": "payable",
      "type": "function"
    },
    {
      "constant": false,
      "inputs": [
        {
          "internalType": "uint256",
          "name": "money",
          "type": "uint256"
        }
      ],
      "name": "contribute2",
      "outputs": [
        {
          "internalType": "uint256",
          "name": "numberOfContributors",
          "type": "uint256"
        }
      ],
      "payable": true,
      "stateMutability": "payable",
      "type": "function"
    },
    {
      "constant": false,
      "inputs": [
        {
          "internalType": "uint256",
          "name": "money",
          "type": "uint256"
        },
        {
          "internalType": "address",
          "name": "toAddress",
          "type": "address"
        }
      ],
      "name": "contribute3",
      "outputs": [
        {
          "internalType": "uint256",
          "name": "numberOfContributors",
          "type": "uint256"
        }
      ],
      "payable": true,
      "stateMutability": "payable",
      "type": "function"
    },
    {
      "constant": true,
      "inputs": [
        {
          "internalType": "address",
          "name": "addr",
          "type": "address"
        }
      ],
      "name": "getContribution",
      "outputs": [
        {
          "internalType": "bool",
          "name": "",
          "type": "bool"
        }
      ],
      "payable": false,
      "stateMutability": "view",
      "type": "function"
    },
    {
      "constant": true,
      "inputs": [],
      "name": "getContributorsCount",
      "outputs": [
        {
          "internalType": "uint256",
          "name": "",
          "type": "uint256"
        }
      ],
      "payable": false,
      "stateMutability": "view",
      "type": "function"
    },
    {
      "constant": true,
      "inputs": [],
      "name": "getMinimumContribution",
      "outputs": [
        {
          "internalType": "uint256",
          "name": "",
          "type": "uint256"
        }
      ],
      "payable": false,
      "stateMutability": "view",
      "type": "function"
    },
    {
      "constant": true,
      "inputs": [],
      "name": "getTotalValue",
      "outputs": [
        {
          "internalType": "uint256",
          "name": "",
          "type": "uint256"
        }
      ],
      "payable": false,
      "stateMutability": "view",
      "type": "function"
    },
    {
      "constant": true,
      "inputs": [],
      "name": "getOwnerAddress",
      "outputs": [
        {
          "internalType": "address",
          "name": "",
          "type": "address"
        }
      ],
      "payable": false,
      "stateMutability": "view",
      "type": "function"
    }
  ],
  "bytecode": "0x608060405234801561001057600080fd5b506040516110123803806110128339818101604052604081101561003357600080fd5b81019080805190602001909291908051906020019092919050505080600160006101000a81548173ffffffffffffffffffffffffffffffffffffffff021916908373ffffffffffffffffffffffffffffffffffffffff16021790555081600481905550600060058190555060006003819055505050610f5b806100b76000396000f3fe6080604052600436106100c25760003560e01c8063937e09b11161007f578063d4c3eea011610059578063d4c3eea0146103f1578063d7bb99ba1461041c578063f84038b11461043a578063feed556114610465576100c2565b8063937e09b114610339578063bb479b9814610364578063caa648b4146103c6576100c2565b806302575efd146100c75780630c4f65bd146101095780631cee07001461016057806321eff7fc1461024e5780637569b3d7146102b75780638da5cb5b146102e2575b600080fd5b6100f3600480360360208110156100dd57600080fd5b8101908080359060200190929190505050610490565b6040518082815260200191505060405180910390f35b34801561011557600080fd5b5061011e61065a565b604051808273ffffffffffffffffffffffffffffffffffffffff1673ffffffffffffffffffffffffffffffffffffffff16815260200191505060405180910390f35b34801561016c57600080fd5b506101996004803603602081101561018357600080fd5b81019080803590602001909291905050506106e2565b604051808481526020018373ffffffffffffffffffffffffffffffffffffffff1673ffffffffffffffffffffffffffffffffffffffff16815260200180602001828103825283818151815260200191508051906020019080838360005b838110156102115780820151818401526020810190506101f6565b50505050905090810190601f16801561023e5780820380516001836020036101000a031916815260200191505b5094505050505060405180910390f35b34801561025a57600080fd5b5061029d6004803603602081101561027157600080fd5b81019080803573ffffffffffffffffffffffffffffffffffffffff1690602001909291905050506107d1565b604051808215151515815260200191505060405180910390f35b3480156102c357600080fd5b506102cc610827565b6040518082815260200191505060405180910390f35b3480156102ee57600080fd5b506102f761082d565b604051808273ffffffffffffffffffffffffffffffffffffffff1673ffffffffffffffffffffffffffffffffffffffff16815260200191505060405180910390f35b34801561034557600080fd5b5061034e610853565b6040518082815260200191505060405180910390f35b6103b06004803603604081101561037a57600080fd5b8101908080359060200190929190803573ffffffffffffffffffffffffffffffffffffffff169060200190929190505050610859565b6040518082815260200191505060405180910390f35b3480156103d257600080fd5b506103db610a24565b6040518082815260200191505060405180910390f35b3480156103fd57600080fd5b50610406610aac565b6040518082815260200191505060405180910390f35b610424610ab2565b6040518082815260200191505060405180910390f35b34801561044657600080fd5b5061044f610d3a565b6040518082815260200191505060405180910390f35b34801561047157600080fd5b5061047a610dc2565b6040518082815260200191505060405180910390f35b60006004548210156104a157600080fd5b6001600260003373ffffffffffffffffffffffffffffffffffffffff1673ffffffffffffffffffffffffffffffffffffffff16815260200190815260200160002060006101000a81548160ff021916908315150217905550600360008154809291906001019190505550816005600082825401925050819055503373ffffffffffffffffffffffffffffffffffffffff167f4ea40d5e8c76929deef87d860acc5d87d329935ea89d5b6b84f503e934de0b71836040518082815260200191505060405180910390a2600160009054906101000a900473ffffffffffffffffffffffffffffffffffffffff1673ffffffffffffffffffffffffffffffffffffffff166108fc349081150290604051600060405180830381858888f193505050501580156105d1573d6000803e3d6000fd5b503073ffffffffffffffffffffffffffffffffffffffff16637569b3d76040518163ffffffff1660e01b815260040160206040518083038186803b15801561061857600080fd5b505afa15801561062c573d6000803e3d6000fd5b505050506040513d602081101561064257600080fd5b81019080805190602001909291905050509050919050565b60003073ffffffffffffffffffffffffffffffffffffffff16638da5cb5b6040518163ffffffff1660e01b815260040160206040518083038186803b1580156106a257600080fd5b505afa1580156106b6573d6000803e3d6000fd5b505050506040513d60208110156106cc57600080fd5b8101908080519060200190929190505050905090565b600081815481106106ef57fe5b90600052602060002090600302016000915090508060000154908060010160009054906101000a900473ffffffffffffffffffffffffffffffffffffffff1690806002018054600181600116156101000203166002900480601f0160208091040260200160405190810160405280929190818152602001828054600181600116156101000203166002900480156107c75780601f1061079c576101008083540402835291602001916107c7565b820191906000526020600020905b8154815290600101906020018083116107aa57829003601f168201915b5050505050905083565b6000600260008373ffffffffffffffffffffffffffffffffffffffff1673ffffffffffffffffffffffffffffffffffffffff16815260200190815260200160002060009054906101000a900460ff169050919050565b60035481565b600160009054906101000a900473ffffffffffffffffffffffffffffffffffffffff1681565b60045481565b600060045483101561086a57600080fd5b6001600260008473ffffffffffffffffffffffffffffffffffffffff1673ffffffffffffffffffffffffffffffffffffffff16815260200190815260200160002060006101000a81548160ff021916908315150217905550600360008154809291906001019190505550826005600082825401925050819055508173ffffffffffffffffffffffffffffffffffffffff167f4ea40d5e8c76929deef87d860acc5d87d329935ea89d5b6b84f503e934de0b71846040518082815260200191505060405180910390a2600160009054906101000a900473ffffffffffffffffffffffffffffffffffffffff1673ffffffffffffffffffffffffffffffffffffffff166108fc849081150290604051600060405180830381858888f1935050505015801561099a573d6000803e3d6000fd5b503073ffffffffffffffffffffffffffffffffffffffff16637569b3d76040518163ffffffff1660e01b815260040160206040518083038186803b1580156109e157600080fd5b505afa1580156109f5573d6000803e3d6000fd5b505050506040513d6020811015610a0b57600080fd5b8101908080519060200190929190505050905092915050565b60003073ffffffffffffffffffffffffffffffffffffffff1663d4c3eea06040518163ffffffff1660e01b815260040160206040518083038186803b158015610a6c57600080fd5b505afa158015610a80573d6000803e3d6000fd5b505050506040513d6020811015610a9657600080fd5b8101908080519060200190929190505050905090565b60055481565b6000600454341015610ac357600080fd5b343373ffffffffffffffffffffffffffffffffffffffff16311015610ae757600080fd5b610aef610e4a565b60405180606001604052803481526020013373ffffffffffffffffffffffffffffffffffffffff168152602001604051806020016040528060008152508152509050600081908060018154018082558091505090600182039060005260206000209060030201600090919290919091506000820151816000015560208201518160010160006101000a81548173ffffffffffffffffffffffffffffffffffffffff021916908373ffffffffffffffffffffffffffffffffffffffff1602179055506040820151816002019080519060200190610bcc929190610e81565b505050506001600260003373ffffffffffffffffffffffffffffffffffffffff1673ffffffffffffffffffffffffffffffffffffffff16815260200190815260200160002060006101000a81548160ff02191690831515021790555060036000815480929190600101919050555034600560008282540192505081905550600160009054906101000a900473ffffffffffffffffffffffffffffffffffffffff1673ffffffffffffffffffffffffffffffffffffffff166108fc349081150290604051600060405180830381858888f19350505050158015610cb2573d6000803e3d6000fd5b503073ffffffffffffffffffffffffffffffffffffffff16637569b3d76040518163ffffffff1660e01b815260040160206040518083038186803b158015610cf957600080fd5b505afa158015610d0d573d6000803e3d6000fd5b505050506040513d6020811015610d2357600080fd5b810190808051906020019092919050505091505090565b60003073ffffffffffffffffffffffffffffffffffffffff1663937e09b16040518163ffffffff1660e01b815260040160206040518083038186803b158015610d8257600080fd5b505afa158015610d96573d6000803e3d6000fd5b505050506040513d6020811015610dac57600080fd5b8101908080519060200190929190505050905090565b60003073ffffffffffffffffffffffffffffffffffffffff16637569b3d76040518163ffffffff1660e01b815260040160206040518083038186803b158015610e0a57600080fd5b505afa158015610e1e573d6000803e3d6000fd5b505050506040513d6020811015610e3457600080fd5b8101908080519060200190929190505050905090565b604051806060016040528060008152602001600073ffffffffffffffffffffffffffffffffffffffff168152602001606081525090565b828054600181600116156101000203166002900490600052602060002090601f016020900481019282601f10610ec257805160ff1916838001178555610ef0565b82800160010185558215610ef0579182015b82811115610eef578251825591602001919060010190610ed4565b5b509050610efd9190610f01565b5090565b610f2391905b80821115610f1f576000816000905550600101610f07565b5090565b9056fea265627a7a723158209b62a19fadc93d589b86c17eba784f8033149efb043c6146eb3fb0dca69ac3cd64736f6c63430005100032",
  "source": "pragma solidity >=0.4.21 <0.8.0;\n\ncontract CrowdfundingCampaign {\n    \n//    struct Withdrawal {\n//        string description;\n//        uint value;\n//        address recipient;\n//        bool complete;\n//        uint approvalCount;\n//        mapping(address => bool) approvals;\n//    }\n//    Withdrawal [] public withdrawals;\n\n    struct Contribution {\n        uint value;\n        address contributor;\n        string description;\n    }\n\n    Contribution [] public contributions;\n    address payable public owner;\n    mapping(address => bool) contributors;\n    uint public contributorsCount;\n    uint public minimumContribution;\n    uint public totalValue;\n\n    constructor(uint minimum, address payable creator) public {\n        owner = creator;\n        minimumContribution = minimum;\n        totalValue = 0;\n        contributorsCount = 0;\n    }\n\n    event contributeMoney(address indexed _from, uint256 _value);\n    \n    function contribute() public payable returns(uint numberOfContributors) {\n        require(msg.value >= minimumContribution);\n        require(msg.sender.balance >= msg.value);\n\n        Contribution memory newContribution = Contribution({\n            description: \"\",\n            value: msg.value,\n            contributor: msg.sender\n        });\n        contributions.push(newContribution);\n\n        contributors[msg.sender] = true;\n        contributorsCount++;\n        totalValue += msg.value;\n        owner.transfer(msg.value);\n        return this.contributorsCount();\n    }\n\n    function contribute2(uint money) public payable returns(uint numberOfContributors) {\n        require(money >= minimumContribution);\n        contributors[msg.sender] = true;\n        contributorsCount++;\n        totalValue += money;\n        emit contributeMoney(msg.sender, money);\n        owner.transfer(msg.value);\n        return this.contributorsCount();\n    }\n\n    function contribute3(uint money, address toAddress) public payable returns(uint numberOfContributors) {\n        require(money >= minimumContribution);\n        contributors[toAddress] = true;\n        contributorsCount++;\n        totalValue += money;\n        emit contributeMoney(toAddress, money);\n        owner.transfer(money);\n        return this.contributorsCount();\n    }\n\n    function getContribution(address addr) public view returns(bool) {\n        return contributors[addr];\n    }\n\n    function getContributorsCount() public view returns(uint) {\n        return this.contributorsCount();\n    }\n\n    function getMinimumContribution() public view returns(uint) {\n        return this.minimumContribution();\n    }\n\n    function getTotalValue() public view returns(uint) {\n        return this.totalValue();\n    }\n\n    function getOwnerAddress() public view returns(address ) {\n        return this.owner();\n    }\n\n    modifier onlyOwner() {\n        require(msg.sender == owner);\n        _;\n    }\n    \n    modifier onlyContributor() {\n        require(contributors[msg.sender]);\n        _;\n    }\n    \n//    function createWithdrawal (string description, uint value, address recipient) public onlyOwner returns(uint) {\n//        Withdrawal memory newWithdraw = Withdrawal({\n//            description: description,\n//            value: value,\n//            recipient: recipient,\n//            complete: false,\n//            approvalCount: 0\n//        });\n//        withdrawals.push(newWithdraw);\n//        return withdrawals.length - 1;\n//    }\n//\n//    function approveWithdrawal (uint index) public onlyContributor {\n//        Withdrawal storage withdrawal = withdrawals[index];\n//\n//        require(!withdrawal.approvals[msg.sender]);\n//\n//        withdrawal.approvals[msg.sender] = true;\n//        withdrawal.approvalCount++;\n//    }\n//\n//    function finalizeWithdrawal (uint index) public onlyOwner {\n//        Withdrawal storage withdrawal = withdrawals[index];\n//\n//        require(withdrawal.approvalCount > (contributorsCount / 2));\n//        require(!withdrawal.complete);\n//\n//        withdrawal.recipient.transfer(withdrawal.value);\n//        totalValue -= withdrawal.value;\n//        withdrawal.complete = true;\n//    }\n}",
  "sourcePath": "/home/tomas/FEI/DP-I/DP-I-project/contracts/CrowdfundingCampaign.sol",
  "compiler": {
    "name": "solc",
    "version": "0.5.16+commit.9c3226ce.Emscripten.clang"
  },
  "schemaVersion": "3.4.4",
  "updatedAt": "2022-01-20T17:53:03.128Z",
  "devdoc": {
    "methods": {}
  },
  "userdoc": {
    "methods": {}
  }
}