{
  "contractName": "CrowdfundingCampaign",
  "abi": [
    {
      "constant": true,
      "inputs": [],
      "name": "contributorsCount",
      "outputs": [
        {
          "name": "",
          "type": "uint256"
        }
      ],
      "payable": false,
      "stateMutability": "view",
      "type": "function"
    },
    {
      "constant": true,
      "inputs": [],
      "name": "owner",
      "outputs": [
        {
          "name": "",
          "type": "address"
        }
      ],
      "payable": false,
      "stateMutability": "view",
      "type": "function"
    },
    {
      "constant": true,
      "inputs": [],
      "name": "minimumContribution",
      "outputs": [
        {
          "name": "",
          "type": "uint256"
        }
      ],
      "payable": false,
      "stateMutability": "view",
      "type": "function"
    },
    {
      "constant": true,
      "inputs": [],
      "name": "totalValue",
      "outputs": [
        {
          "name": "",
          "type": "uint256"
        }
      ],
      "payable": false,
      "stateMutability": "view",
      "type": "function"
    },
    {
      "inputs": [
        {
          "name": "minimum",
          "type": "uint256"
        },
        {
          "name": "creator",
          "type": "address"
        }
      ],
      "payable": false,
      "stateMutability": "nonpayable",
      "type": "constructor"
    },
    {
      "anonymous": false,
      "inputs": [
        {
          "indexed": true,
          "name": "_from",
          "type": "address"
        },
        {
          "indexed": false,
          "name": "_value",
          "type": "uint256"
        }
      ],
      "name": "contributeMoney",
      "type": "event"
    },
    {
      "constant": false,
      "inputs": [],
      "name": "contribute",
      "outputs": [
        {
          "name": "numberOfContributors",
          "type": "uint256"
        }
      ],
      "payable": true,
      "stateMutability": "payable",
      "type": "function"
    },
    {
      "constant": false,
      "inputs": [
        {
          "name": "money",
          "type": "uint256"
        }
      ],
      "name": "contribute2",
      "outputs": [
        {
          "name": "numberOfContributors",
          "type": "uint256"
        }
      ],
      "payable": false,
      "stateMutability": "nonpayable",
      "type": "function"
    },
    {
      "constant": false,
      "inputs": [
        {
          "name": "money",
          "type": "uint256"
        },
        {
          "name": "toAddress",
          "type": "address"
        }
      ],
      "name": "contribute3",
      "outputs": [
        {
          "name": "numberOfContributors",
          "type": "uint256"
        }
      ],
      "payable": false,
      "stateMutability": "nonpayable",
      "type": "function"
    },
    {
      "constant": true,
      "inputs": [
        {
          "name": "addr",
          "type": "address"
        }
      ],
      "name": "getContribution",
      "outputs": [
        {
          "name": "",
          "type": "bool"
        }
      ],
      "payable": false,
      "stateMutability": "view",
      "type": "function"
    },
    {
      "constant": true,
      "inputs": [],
      "name": "getContributorsCount",
      "outputs": [
        {
          "name": "",
          "type": "uint256"
        }
      ],
      "payable": false,
      "stateMutability": "view",
      "type": "function"
    },
    {
      "constant": true,
      "inputs": [],
      "name": "getMinimumContribution",
      "outputs": [
        {
          "name": "",
          "type": "uint256"
        }
      ],
      "payable": false,
      "stateMutability": "view",
      "type": "function"
    },
    {
      "constant": true,
      "inputs": [],
      "name": "getTotalValue",
      "outputs": [
        {
          "name": "",
          "type": "uint256"
        }
      ],
      "payable": false,
      "stateMutability": "view",
      "type": "function"
    },
    {
      "constant": true,
      "inputs": [],
      "name": "getOwnerAddress",
      "outputs": [
        {
          "name": "",
          "type": "address"
        }
      ],
      "payable": false,
      "stateMutability": "view",
      "type": "function"
    }
  ],
  "bytecode": "0x608060405234801561001057600080fd5b50604051604080610bb18339810180604052810190808051906020019092919080519060200190929190505050806000806101000a81548173ffffffffffffffffffffffffffffffffffffffff021916908373ffffffffffffffffffffffffffffffffffffffff16021790555081600381905550600060048190555060006002819055505050610b0c806100a56000396000f3006080604052600436106100ba576000357c0100000000000000000000000000000000000000000000000000000000900463ffffffff16806302575efd146100bf5780630c4f65bd1461010057806321eff7fc146101575780637569b3d7146101b25780638da5cb5b146101dd578063937e09b114610234578063bb479b981461025f578063caa648b4146102c0578063d4c3eea0146102eb578063d7bb99ba14610316578063f84038b114610334578063feed55611461035f575b600080fd5b3480156100cb57600080fd5b506100ea6004803603810190808035906020019092919050505061038a565b6040518082815260200191505060405180910390f35b34801561010c57600080fd5b5061011561050a565b604051808273ffffffffffffffffffffffffffffffffffffffff1673ffffffffffffffffffffffffffffffffffffffff16815260200191505060405180910390f35b34801561016357600080fd5b50610198600480360381019080803573ffffffffffffffffffffffffffffffffffffffff1690602001909291905050506105b0565b604051808215151515815260200191505060405180910390f35b3480156101be57600080fd5b506101c7610606565b6040518082815260200191505060405180910390f35b3480156101e957600080fd5b506101f261060c565b604051808273ffffffffffffffffffffffffffffffffffffffff1673ffffffffffffffffffffffffffffffffffffffff16815260200191505060405180910390f35b34801561024057600080fd5b50610249610631565b6040518082815260200191505060405180910390f35b34801561026b57600080fd5b506102aa60048036038101908080359060200190929190803573ffffffffffffffffffffffffffffffffffffffff169060200190929190505050610637565b6040518082815260200191505060405180910390f35b3480156102cc57600080fd5b506102d56107b8565b6040518082815260200191505060405180910390f35b3480156102f757600080fd5b5061030061085e565b6040518082815260200191505060405180910390f35b61031e610864565b6040518082815260200191505060405180910390f35b34801561034057600080fd5b50610349610994565b6040518082815260200191505060405180910390f35b34801561036b57600080fd5b50610374610a3a565b6040518082815260200191505060405180910390f35b6000600354821015151561039d57600080fd5b60018060003373ffffffffffffffffffffffffffffffffffffffff1673ffffffffffffffffffffffffffffffffffffffff16815260200190815260200160002060006101000a81548160ff021916908315150217905550600260008154809291906001019190505550816004600082825401925050819055503373ffffffffffffffffffffffffffffffffffffffff167f4ea40d5e8c76929deef87d860acc5d87d329935ea89d5b6b84f503e934de0b71836040518082815260200191505060405180910390a23073ffffffffffffffffffffffffffffffffffffffff16637569b3d76040518163ffffffff167c0100000000000000000000000000000000000000000000000000000000028152600401602060405180830381600087803b1580156104c857600080fd5b505af11580156104dc573d6000803e3d6000fd5b505050506040513d60208110156104f257600080fd5b81019080805190602001909291905050509050919050565b60003073ffffffffffffffffffffffffffffffffffffffff16638da5cb5b6040518163ffffffff167c0100000000000000000000000000000000000000000000000000000000028152600401602060405180830381600087803b15801561057057600080fd5b505af1158015610584573d6000803e3d6000fd5b505050506040513d602081101561059a57600080fd5b8101908080519060200190929190505050905090565b6000600160008373ffffffffffffffffffffffffffffffffffffffff1673ffffffffffffffffffffffffffffffffffffffff16815260200190815260200160002060009054906101000a900460ff169050919050565b60025481565b6000809054906101000a900473ffffffffffffffffffffffffffffffffffffffff1681565b60035481565b6000600354831015151561064a57600080fd5b60018060008473ffffffffffffffffffffffffffffffffffffffff1673ffffffffffffffffffffffffffffffffffffffff16815260200190815260200160002060006101000a81548160ff021916908315150217905550600260008154809291906001019190505550826004600082825401925050819055508173ffffffffffffffffffffffffffffffffffffffff167f4ea40d5e8c76929deef87d860acc5d87d329935ea89d5b6b84f503e934de0b71846040518082815260200191505060405180910390a23073ffffffffffffffffffffffffffffffffffffffff16637569b3d76040518163ffffffff167c0100000000000000000000000000000000000000000000000000000000028152600401602060405180830381600087803b15801561077557600080fd5b505af1158015610789573d6000803e3d6000fd5b505050506040513d602081101561079f57600080fd5b8101908080519060200190929190505050905092915050565b60003073ffffffffffffffffffffffffffffffffffffffff1663d4c3eea06040518163ffffffff167c0100000000000000000000000000000000000000000000000000000000028152600401602060405180830381600087803b15801561081e57600080fd5b505af1158015610832573d6000803e3d6000fd5b505050506040513d602081101561084857600080fd5b8101908080519060200190929190505050905090565b60045481565b6000600354341015151561087757600080fd5b60018060003373ffffffffffffffffffffffffffffffffffffffff1673ffffffffffffffffffffffffffffffffffffffff16815260200190815260200160002060006101000a81548160ff021916908315150217905550600260008154809291906001019190505550346004600082825401925050819055503073ffffffffffffffffffffffffffffffffffffffff16637569b3d76040518163ffffffff167c0100000000000000000000000000000000000000000000000000000000028152600401602060405180830381600087803b15801561095457600080fd5b505af1158015610968573d6000803e3d6000fd5b505050506040513d602081101561097e57600080fd5b8101908080519060200190929190505050905090565b60003073ffffffffffffffffffffffffffffffffffffffff1663937e09b16040518163ffffffff167c0100000000000000000000000000000000000000000000000000000000028152600401602060405180830381600087803b1580156109fa57600080fd5b505af1158015610a0e573d6000803e3d6000fd5b505050506040513d6020811015610a2457600080fd5b8101908080519060200190929190505050905090565b60003073ffffffffffffffffffffffffffffffffffffffff16637569b3d76040518163ffffffff167c0100000000000000000000000000000000000000000000000000000000028152600401602060405180830381600087803b158015610aa057600080fd5b505af1158015610ab4573d6000803e3d6000fd5b505050506040513d6020811015610aca57600080fd5b81019080805190602001909291905050509050905600a165627a7a7230582069d69aae3487f43419f254da8d592174eedd7681c10b4fb6406536384cace59c0029",
  "source": "pragma solidity ^0.4.25;\n\ncontract CrowdfundingCampaignFactory {\n    \n    address[] public deployedCampaigns;\n    \n    function createCampain(uint minimum) public {\n        address newCampain = new CrowdfundingCampaign(minimum, msg.sender);\n        deployedCampaigns.push(newCampain);\n    }\n    \n    function getDeployedCampaigns() public view returns (address[]) {\n        return deployedCampaigns;\n    }\n}\n\ncontract CrowdfundingCampaign {\n    \n//    struct Withdrawal {\n//        string description;\n//        uint value;\n//        address recipient;\n//        bool complete;\n//        uint approvalCount;\n//        mapping(address => bool) approvals;\n//    }\n\n    struct Contribution {\n        uint value;\n        address contributor;\n    }\n    \n//    Withdrawal [] public withdrawals;\n    address public owner;\n    mapping(address => bool) contributors;\n    uint public contributorsCount;\n    uint public minimumContribution;\n    uint public totalValue;\n    \n    constructor(uint minimum, address creator) public {\n        owner = creator;\n        minimumContribution = minimum;\n        totalValue = 0;\n        contributorsCount = 0;\n    }\n\n    event contributeMoney(address indexed _from, uint256 _value);\n    \n    function contribute() public payable returns(uint numberOfContributors) {\n        require(msg.value >= minimumContribution);\n        contributors[msg.sender] = true;\n        contributorsCount++;\n        totalValue += msg.value;\n        return this.contributorsCount();\n    }\n\n    function contribute2(uint money) public returns(uint numberOfContributors) {\n        require(money >= minimumContribution);\n        contributors[msg.sender] = true;\n        contributorsCount++;\n        totalValue += money;\n        emit contributeMoney(msg.sender, money);\n        return this.contributorsCount();\n    }\n\n    function contribute3(uint money, address toAddress) public returns(uint numberOfContributors) {\n        require(money >= minimumContribution);\n        contributors[toAddress] = true;\n        contributorsCount++;\n        totalValue += money;\n        emit contributeMoney(toAddress, money);\n        return this.contributorsCount();\n    }\n\n    function getContribution(address addr) public view returns(bool) {\n        return contributors[addr];\n    }\n\n    function getContributorsCount() public view returns(uint) {\n        return this.contributorsCount();\n    }\n\n    function getMinimumContribution() public view returns(uint) {\n        return this.minimumContribution();\n    }\n\n    function getTotalValue() public view returns(uint) {\n        return this.totalValue();\n    }\n\n    function getOwnerAddress() public view returns(address ) {\n        return this.owner();\n    }\n\n    modifier onlyOwner() {\n        require(msg.sender == owner);\n        _;\n    }\n    \n    modifier onlyContributor() {\n        require(contributors[msg.sender]);\n        _;\n    }\n    \n//    function createWithdrawal (string description, uint value, address recipient) public onlyOwner returns(uint) {\n//        Withdrawal memory newWithdraw = Withdrawal({\n//            description: description,\n//            value: value,\n//            recipient: recipient,\n//            complete: false,\n//            approvalCount: 0\n//        });\n//        withdrawals.push(newWithdraw);\n//        return withdrawals.length - 1;\n//    }\n//\n//    function approveWithdrawal (uint index) public onlyContributor {\n//        Withdrawal storage withdrawal = withdrawals[index];\n//\n//        require(!withdrawal.approvals[msg.sender]);\n//\n//        withdrawal.approvals[msg.sender] = true;\n//        withdrawal.approvalCount++;\n//    }\n//\n//    function finalizeWithdrawal (uint index) public onlyOwner {\n//        Withdrawal storage withdrawal = withdrawals[index];\n//\n//        require(withdrawal.approvalCount > (contributorsCount / 2));\n//        require(!withdrawal.complete);\n//\n//        withdrawal.recipient.transfer(withdrawal.value);\n//        totalValue -= withdrawal.value;\n//        withdrawal.complete = true;\n//    }\n}",
  "sourcePath": "/home/tomas/FEI/DP-I/DP-I/contracts/CrowdfundingCampaign.sol",
  "compiler": {
    "name": "solc",
    "version": "0.4.25+commit.59dbf8f1.Emscripten.clang"
  },
  "schemaVersion": "3.4.4",
  "updatedAt": "2022-01-16T19:50:34.552Z",
  "devdoc": {
    "methods": {}
  },
  "userdoc": {
    "methods": {}
  }
}